{
  "contractName": "Wallet",
  "abi": [
    {
      "inputs": [
        {
          "internalType": "address",
          "name": "_cakeLPTokenAddress",
          "type": "address"
        }
      ],
      "stateMutability": "nonpayable",
      "type": "constructor"
    },
    {
      "anonymous": false,
      "inputs": [
        {
          "indexed": true,
          "internalType": "address",
          "name": "user",
          "type": "address"
        },
        {
          "indexed": false,
          "internalType": "uint256",
          "name": "amount",
          "type": "uint256"
        }
      ],
      "name": "Deposited",
      "type": "event"
    },
    {
      "anonymous": false,
      "inputs": [
        {
          "indexed": true,
          "internalType": "address",
          "name": "previousOwner",
          "type": "address"
        },
        {
          "indexed": true,
          "internalType": "address",
          "name": "newOwner",
          "type": "address"
        }
      ],
      "name": "OwnershipTransferred",
      "type": "event"
    },
    {
      "anonymous": false,
      "inputs": [
        {
          "indexed": true,
          "internalType": "address",
          "name": "user",
          "type": "address"
        },
        {
          "indexed": false,
          "internalType": "uint256",
          "name": "amount",
          "type": "uint256"
        }
      ],
      "name": "Withdrawn",
      "type": "event"
    },
    {
      "inputs": [
        {
          "internalType": "address",
          "name": "",
          "type": "address"
        }
      ],
      "name": "balances",
      "outputs": [
        {
          "internalType": "uint256",
          "name": "",
          "type": "uint256"
        }
      ],
      "stateMutability": "view",
      "type": "function"
    },
    {
      "inputs": [],
      "name": "owner",
      "outputs": [
        {
          "internalType": "address",
          "name": "",
          "type": "address"
        }
      ],
      "stateMutability": "view",
      "type": "function"
    },
    {
      "inputs": [],
      "name": "renounceOwnership",
      "outputs": [],
      "stateMutability": "nonpayable",
      "type": "function"
    },
    {
      "inputs": [
        {
          "internalType": "address",
          "name": "newOwner",
          "type": "address"
        }
      ],
      "name": "transferOwnership",
      "outputs": [],
      "stateMutability": "nonpayable",
      "type": "function"
    },
    {
      "inputs": [],
      "name": "getBalance",
      "outputs": [
        {
          "internalType": "uint256",
          "name": "",
          "type": "uint256"
        }
      ],
      "stateMutability": "view",
      "type": "function"
    },
    {
      "inputs": [
        {
          "internalType": "uint256",
          "name": "amount",
          "type": "uint256"
        }
      ],
      "name": "deposit",
      "outputs": [],
      "stateMutability": "nonpayable",
      "type": "function"
    },
    {
      "inputs": [
        {
          "internalType": "uint256",
          "name": "amount",
          "type": "uint256"
        }
      ],
      "name": "withdraw",
      "outputs": [],
      "stateMutability": "nonpayable",
      "type": "function"
    }
  ],
  "bytecode": "0x608060405234801561000f575f80fd5b506040516110c23803806110c2833981810160405281019061003191906101b9565b61004d61004261009360201b60201c565b61009a60201b60201c565b8060015f6101000a81548173ffffffffffffffffffffffffffffffffffffffff021916908373ffffffffffffffffffffffffffffffffffffffff160217905550506101e4565b5f33905090565b5f805f9054906101000a900473ffffffffffffffffffffffffffffffffffffffff169050815f806101000a81548173ffffffffffffffffffffffffffffffffffffffff021916908373ffffffffffffffffffffffffffffffffffffffff1602179055508173ffffffffffffffffffffffffffffffffffffffff168173ffffffffffffffffffffffffffffffffffffffff167f8be0079c531659141344cd1fd0a4f28419497f9722a3daafe3b4186f6b6457e060405160405180910390a35050565b5f80fd5b5f73ffffffffffffffffffffffffffffffffffffffff82169050919050565b5f6101888261015f565b9050919050565b6101988161017e565b81146101a2575f80fd5b50565b5f815190506101b38161018f565b92915050565b5f602082840312156101ce576101cd61015b565b5b5f6101db848285016101a5565b91505092915050565b610ed1806101f15f395ff3fe608060405234801561000f575f80fd5b506004361061007b575f3560e01c8063715018a611610059578063715018a6146100e95780638da5cb5b146100f3578063b6b55f2514610111578063f2fde38b1461012d5761007b565b806312065fe01461007f57806327e235e31461009d5780632e1a7d4d146100cd575b5f80fd5b610087610149565b6040516100949190610989565b60405180910390f35b6100b760048036038101906100b29190610a00565b61018d565b6040516100c49190610989565b60405180910390f35b6100e760048036038101906100e29190610a55565b6101a2565b005b6100f16103a1565b005b6100fb6103b4565b6040516101089190610a8f565b60405180910390f35b61012b60048036038101906101269190610a55565b6103db565b005b61014760048036038101906101429190610a00565b61077f565b005b5f60025f3373ffffffffffffffffffffffffffffffffffffffff1673ffffffffffffffffffffffffffffffffffffffff1681526020019081526020015f2054905090565b6002602052805f5260405f205f915090505481565b8060025f3373ffffffffffffffffffffffffffffffffffffffff1673ffffffffffffffffffffffffffffffffffffffff1681526020019081526020015f20541015610222576040517f08c379a000000000000000000000000000000000000000000000000000000000815260040161021990610b02565b60405180910390fd5b6102728160025f3373ffffffffffffffffffffffffffffffffffffffff1673ffffffffffffffffffffffffffffffffffffffff1681526020019081526020015f205461080190919063ffffffff16565b60025f3373ffffffffffffffffffffffffffffffffffffffff1673ffffffffffffffffffffffffffffffffffffffff1681526020019081526020015f208190555060015f9054906101000a900473ffffffffffffffffffffffffffffffffffffffff1673ffffffffffffffffffffffffffffffffffffffff1663a9059cbb33836040518363ffffffff1660e01b815260040161030f929190610b20565b6020604051808303815f875af115801561032b573d5f803e3d5ffd5b505050506040513d601f19601f8201168201806040525081019061034f9190610b7c565b503373ffffffffffffffffffffffffffffffffffffffff167f7084f5476618d8e60b11ef0d7d3f06914655adb8793e28ff7f018d4c76d505d5826040516103969190610989565b60405180910390a250565b6103a9610816565b6103b25f610894565b565b5f805f9054906101000a900473ffffffffffffffffffffffffffffffffffffffff16905090565b5f811161041d576040517f08c379a000000000000000000000000000000000000000000000000000000000815260040161041490610bf1565b60405180910390fd5b8060015f9054906101000a900473ffffffffffffffffffffffffffffffffffffffff1673ffffffffffffffffffffffffffffffffffffffff1663dd62ed3e33306040518363ffffffff1660e01b815260040161047a929190610c0f565b602060405180830381865afa158015610495573d5f803e3d5ffd5b505050506040513d601f19601f820116820180604052508101906104b99190610c4a565b10156104fa576040517f08c379a00000000000000000000000000000000000000000000000000000000081526004016104f190610cbf565b60405180910390fd5b61054a8160025f3373ffffffffffffffffffffffffffffffffffffffff1673ffffffffffffffffffffffffffffffffffffffff1681526020019081526020015f205461095590919063ffffffff16565b60025f3373ffffffffffffffffffffffffffffffffffffffff1673ffffffffffffffffffffffffffffffffffffffff1681526020019081526020015f208190555060045f3373ffffffffffffffffffffffffffffffffffffffff1673ffffffffffffffffffffffffffffffffffffffff1681526020019081526020015f205f9054906101000a900460ff1661068f57600160045f3373ffffffffffffffffffffffffffffffffffffffff1673ffffffffffffffffffffffffffffffffffffffff1681526020019081526020015f205f6101000a81548160ff021916908315150217905550600333908060018154018082558091505060019003905f5260205f20015f9091909190916101000a81548173ffffffffffffffffffffffffffffffffffffffff021916908373ffffffffffffffffffffffffffffffffffffffff1602179055505b60015f9054906101000a900473ffffffffffffffffffffffffffffffffffffffff1673ffffffffffffffffffffffffffffffffffffffff166323b872dd3330846040518463ffffffff1660e01b81526004016106ed93929190610cdd565b6020604051808303815f875af1158015610709573d5f803e3d5ffd5b505050506040513d601f19601f8201168201806040525081019061072d9190610b7c565b503373ffffffffffffffffffffffffffffffffffffffff167f2da466a7b24304f47e87fa2e1e5a81b9831ce54fec19055ce277ca2f39ba42c4826040516107749190610989565b60405180910390a250565b610787610816565b5f73ffffffffffffffffffffffffffffffffffffffff168173ffffffffffffffffffffffffffffffffffffffff16036107f5576040517f08c379a00000000000000000000000000000000000000000000000000000000081526004016107ec90610d82565b60405180910390fd5b6107fe81610894565b50565b5f818361080e9190610dcd565b905092915050565b61081e61096a565b73ffffffffffffffffffffffffffffffffffffffff1661083c6103b4565b73ffffffffffffffffffffffffffffffffffffffff1614610892576040517f08c379a000000000000000000000000000000000000000000000000000000000815260040161088990610e4a565b60405180910390fd5b565b5f805f9054906101000a900473ffffffffffffffffffffffffffffffffffffffff169050815f806101000a81548173ffffffffffffffffffffffffffffffffffffffff021916908373ffffffffffffffffffffffffffffffffffffffff1602179055508173ffffffffffffffffffffffffffffffffffffffff168173ffffffffffffffffffffffffffffffffffffffff167f8be0079c531659141344cd1fd0a4f28419497f9722a3daafe3b4186f6b6457e060405160405180910390a35050565b5f81836109629190610e68565b905092915050565b5f33905090565b5f819050919050565b61098381610971565b82525050565b5f60208201905061099c5f83018461097a565b92915050565b5f80fd5b5f73ffffffffffffffffffffffffffffffffffffffff82169050919050565b5f6109cf826109a6565b9050919050565b6109df816109c5565b81146109e9575f80fd5b50565b5f813590506109fa816109d6565b92915050565b5f60208284031215610a1557610a146109a2565b5b5f610a22848285016109ec565b91505092915050565b610a3481610971565b8114610a3e575f80fd5b50565b5f81359050610a4f81610a2b565b92915050565b5f60208284031215610a6a57610a696109a2565b5b5f610a7784828501610a41565b91505092915050565b610a89816109c5565b82525050565b5f602082019050610aa25f830184610a80565b92915050565b5f82825260208201905092915050565b7f496e73756666696369656e7420746f6b656e2062616c616e63650000000000005f82015250565b5f610aec601a83610aa8565b9150610af782610ab8565b602082019050919050565b5f6020820190508181035f830152610b1981610ae0565b9050919050565b5f604082019050610b335f830185610a80565b610b40602083018461097a565b9392505050565b5f8115159050919050565b610b5b81610b47565b8114610b65575f80fd5b50565b5f81519050610b7681610b52565b92915050565b5f60208284031215610b9157610b906109a2565b5b5f610b9e84828501610b68565b91505092915050565b7f4465706f73697420616d6f756e742073686f756c64206e6f74206265203000005f82015250565b5f610bdb601e83610aa8565b9150610be682610ba7565b602082019050919050565b5f6020820190508181035f830152610c0881610bcf565b9050919050565b5f604082019050610c225f830185610a80565b610c2f6020830184610a80565b9392505050565b5f81519050610c4481610a2b565b92915050565b5f60208284031215610c5f57610c5e6109a2565b5b5f610c6c84828501610c36565b91505092915050565b7f496e73756666696369656e7420616c6c6f77616e6365000000000000000000005f82015250565b5f610ca9601683610aa8565b9150610cb482610c75565b602082019050919050565b5f6020820190508181035f830152610cd681610c9d565b9050919050565b5f606082019050610cf05f830186610a80565b610cfd6020830185610a80565b610d0a604083018461097a565b949350505050565b7f4f776e61626c653a206e6577206f776e657220697320746865207a65726f20615f8201527f6464726573730000000000000000000000000000000000000000000000000000602082015250565b5f610d6c602683610aa8565b9150610d7782610d12565b604082019050919050565b5f6020820190508181035f830152610d9981610d60565b9050919050565b7f4e487b71000000000000000000000000000000000000000000000000000000005f52601160045260245ffd5b5f610dd782610971565b9150610de283610971565b9250828203905081811115610dfa57610df9610da0565b5b92915050565b7f4f776e61626c653a2063616c6c6572206973206e6f7420746865206f776e65725f82015250565b5f610e34602083610aa8565b9150610e3f82610e00565b602082019050919050565b5f6020820190508181035f830152610e6181610e28565b9050919050565b5f610e7282610971565b9150610e7d83610971565b9250828201905080821115610e9557610e94610da0565b5b9291505056fea26469706673582212206141fd299b3858bb354cf8ec5b91aa5feef73e5df46ab7d5829bceb40f04ff0b64736f6c634300081a0033",
  "immutableReferences": {},
  "source": "// SPDX-License-Identifier: MIT\npragma solidity ^0.8.0;\n\nimport \"../node_modules/@openzeppelin/contracts/token/ERC20/IERC20.sol\";\nimport \"../node_modules/@openzeppelin/contracts/utils/math/SafeMath.sol\";\nimport \"../node_modules/@openzeppelin/contracts/access/Ownable.sol\";\n\ncontract Wallet is Ownable {\n\n    using SafeMath for uint256;\n\n    event Deposited(address indexed user, uint256 amount);\n    event Withdrawn(address indexed user, uint256 amount);\n\n\n    IERC20 internal cakeLP;\n\n    // CakeLP token balances\n    mapping (address => uint256) public balances;\n\n    // users that deposited CakeLP tokens into their balances \n    address[] internal usersArray;\n    mapping (address => bool) internal users;\n\n\n    constructor(address _cakeLPTokenAddress) {\n        cakeLP = IERC20(_cakeLPTokenAddress);\n    }\n\n\n    function getBalance() external view returns (uint256) {\n        return balances[msg.sender];\n    }\n\n\n    function deposit(uint256 amount) public {\n        require(amount > 0, \"Deposit amount should not be 0\");\n        require(cakeLP.allowance(msg.sender, address(this)) >= amount, \"Insufficient allowance\");\n\n        balances[msg.sender] = balances[msg.sender].add(amount);\n\n        // remember addresses that deposited tokens\n        if (!users[msg.sender]) {\n            users[msg.sender] = true;\n            usersArray.push(msg.sender);\n        }\n        \n        cakeLP.transferFrom(msg.sender, address(this), amount);\n\n        emit Deposited(msg.sender, amount);\n    }\n\n    function withdraw(uint256 amount) public {\n        require(balances[msg.sender] >= amount, \"Insufficient token balance\");\n\n        balances[msg.sender] = balances[msg.sender].sub(amount);\n        cakeLP.transfer(msg.sender, amount);\n\n        emit Withdrawn(msg.sender, amount);\n    }\n}",
  "sourcePath": "/Users/user/Documents/stakedu/contracts/Wallet.sol",
  "compiler": {
    "name": "solc",
    "version": "0.8.26+commit.8a97fa7a.Emscripten.clang"
  },
  "schemaVersion": "3.4.16",
  "updatedAt": "2024-08-14T12:27:58.249Z",
  "devdoc": {
    "kind": "dev",
    "methods": {
      "owner()": {
        "details": "Returns the address of the current owner."
      },
      "renounceOwnership()": {
        "details": "Leaves the contract without owner. It will not be possible to call `onlyOwner` functions. Can only be called by the current owner. NOTE: Renouncing ownership will leave the contract without an owner, thereby disabling any functionality that is only available to the owner."
      },
      "transferOwnership(address)": {
        "details": "Transfers ownership of the contract to a new account (`newOwner`). Can only be called by the current owner."
      }
    },
    "version": 1
  },
  "userdoc": {
    "kind": "user",
    "methods": {},
    "version": 1
  }
}