{
  "address": "0x439cfe110ac427E69E4aF94D93Da70F4516b108C",
  "abi": [
    {
      "inputs": [
        {
          "internalType": "address",
          "name": "_rewardTokenAddress",
          "type": "address"
        },
        {
          "internalType": "address",
          "name": "_lpTokenAddress",
          "type": "address"
        }
      ],
      "stateMutability": "nonpayable",
      "type": "constructor"
    },
    {
      "inputs": [
        {
          "internalType": "address",
          "name": "target",
          "type": "address"
        }
      ],
      "name": "AddressEmptyCode",
      "type": "error"
    },
    {
      "inputs": [
        {
          "internalType": "address",
          "name": "account",
          "type": "address"
        }
      ],
      "name": "AddressInsufficientBalance",
      "type": "error"
    },
    {
      "inputs": [],
      "name": "FailedInnerCall",
      "type": "error"
    },
    {
      "inputs": [
        {
          "internalType": "address",
          "name": "owner",
          "type": "address"
        }
      ],
      "name": "OwnableInvalidOwner",
      "type": "error"
    },
    {
      "inputs": [
        {
          "internalType": "address",
          "name": "account",
          "type": "address"
        }
      ],
      "name": "OwnableUnauthorizedAccount",
      "type": "error"
    },
    {
      "inputs": [
        {
          "internalType": "address",
          "name": "token",
          "type": "address"
        }
      ],
      "name": "SafeERC20FailedOperation",
      "type": "error"
    },
    {
      "anonymous": false,
      "inputs": [
        {
          "indexed": true,
          "internalType": "address",
          "name": "user",
          "type": "address"
        },
        {
          "indexed": false,
          "internalType": "uint256",
          "name": "amount",
          "type": "uint256"
        }
      ],
      "name": "Deposited",
      "type": "event"
    },
    {
      "anonymous": false,
      "inputs": [
        {
          "indexed": true,
          "internalType": "address",
          "name": "previousOwner",
          "type": "address"
        },
        {
          "indexed": true,
          "internalType": "address",
          "name": "newOwner",
          "type": "address"
        }
      ],
      "name": "OwnershipTransferred",
      "type": "event"
    },
    {
      "anonymous": false,
      "inputs": [
        {
          "indexed": true,
          "internalType": "address",
          "name": "user",
          "type": "address"
        },
        {
          "indexed": false,
          "internalType": "uint256",
          "name": "reward",
          "type": "uint256"
        }
      ],
      "name": "RewardPaid",
      "type": "event"
    },
    {
      "anonymous": false,
      "inputs": [
        {
          "indexed": true,
          "internalType": "address",
          "name": "user",
          "type": "address"
        },
        {
          "indexed": false,
          "internalType": "uint256",
          "name": "amount",
          "type": "uint256"
        }
      ],
      "name": "Staked",
      "type": "event"
    },
    {
      "anonymous": false,
      "inputs": [
        {
          "indexed": true,
          "internalType": "address",
          "name": "user",
          "type": "address"
        },
        {
          "indexed": false,
          "internalType": "uint256",
          "name": "amount",
          "type": "uint256"
        }
      ],
      "name": "UnStaked",
      "type": "event"
    },
    {
      "anonymous": false,
      "inputs": [
        {
          "indexed": true,
          "internalType": "address",
          "name": "user",
          "type": "address"
        },
        {
          "indexed": false,
          "internalType": "uint256",
          "name": "amount",
          "type": "uint256"
        }
      ],
      "name": "Withdrawn",
      "type": "event"
    },
    {
      "inputs": [
        {
          "internalType": "address",
          "name": "",
          "type": "address"
        }
      ],
      "name": "balances",
      "outputs": [
        {
          "internalType": "uint256",
          "name": "",
          "type": "uint256"
        }
      ],
      "stateMutability": "view",
      "type": "function"
    },
    {
      "inputs": [],
      "name": "claimReward",
      "outputs": [],
      "stateMutability": "nonpayable",
      "type": "function"
    },
    {
      "inputs": [],
      "name": "claimableReward",
      "outputs": [
        {
          "internalType": "uint256",
          "name": "",
          "type": "uint256"
        }
      ],
      "stateMutability": "view",
      "type": "function"
    },
    {
      "inputs": [
        {
          "internalType": "uint256",
          "name": "index",
          "type": "uint256"
        }
      ],
      "name": "deleteRewardPeriod",
      "outputs": [],
      "stateMutability": "nonpayable",
      "type": "function"
    },
    {
      "inputs": [
        {
          "internalType": "uint256",
          "name": "amount",
          "type": "uint256"
        }
      ],
      "name": "deposit",
      "outputs": [],
      "stateMutability": "payable",
      "type": "function"
    },
    {
      "inputs": [
        {
          "internalType": "uint256",
          "name": "amount",
          "type": "uint256"
        }
      ],
      "name": "depositAndStartStake",
      "outputs": [],
      "stateMutability": "payable",
      "type": "function"
    },
    {
      "inputs": [
        {
          "internalType": "uint256",
          "name": "amount",
          "type": "uint256"
        }
      ],
      "name": "endStake",
      "outputs": [],
      "stateMutability": "nonpayable",
      "type": "function"
    },
    {
      "inputs": [
        {
          "internalType": "uint256",
          "name": "amount",
          "type": "uint256"
        }
      ],
      "name": "endStakeAndWithdraw",
      "outputs": [],
      "stateMutability": "nonpayable",
      "type": "function"
    },
    {
      "inputs": [],
      "name": "getBalance",
      "outputs": [
        {
          "internalType": "uint256",
          "name": "",
          "type": "uint256"
        }
      ],
      "stateMutability": "view",
      "type": "function"
    },
    {
      "inputs": [],
      "name": "getCurrentRewardPeriodId",
      "outputs": [
        {
          "internalType": "uint256",
          "name": "",
          "type": "uint256"
        }
      ],
      "stateMutability": "view",
      "type": "function"
    },
    {
      "inputs": [],
      "name": "getRewardPeriodsCount",
      "outputs": [
        {
          "internalType": "uint256",
          "name": "",
          "type": "uint256"
        }
      ],
      "stateMutability": "view",
      "type": "function"
    },
    {
      "inputs": [],
      "name": "getRewardsStats",
      "outputs": [
        {
          "components": [
            {
              "internalType": "uint256",
              "name": "claimableRewards",
              "type": "uint256"
            },
            {
              "internalType": "uint256",
              "name": "rewardsPaid",
              "type": "uint256"
            },
            {
              "internalType": "uint256",
              "name": "rewardRate",
              "type": "uint256"
            },
            {
              "internalType": "uint256",
              "name": "totalRewardsPaid",
              "type": "uint256"
            }
          ],
          "internalType": "struct StakingRewardPool.RewardsStats",
          "name": "",
          "type": "tuple"
        }
      ],
      "stateMutability": "view",
      "type": "function"
    },
    {
      "inputs": [],
      "name": "getStakedBalance",
      "outputs": [
        {
          "internalType": "uint256",
          "name": "",
          "type": "uint256"
        }
      ],
      "stateMutability": "view",
      "type": "function"
    },
    {
      "inputs": [
        {
          "internalType": "uint256",
          "name": "reward",
          "type": "uint256"
        },
        {
          "internalType": "uint256",
          "name": "from",
          "type": "uint256"
        },
        {
          "internalType": "uint256",
          "name": "to",
          "type": "uint256"
        }
      ],
      "name": "newRewardPeriod",
      "outputs": [],
      "stateMutability": "nonpayable",
      "type": "function"
    },
    {
      "inputs": [],
      "name": "owner",
      "outputs": [
        {
          "internalType": "address",
          "name": "",
          "type": "address"
        }
      ],
      "stateMutability": "view",
      "type": "function"
    },
    {
      "inputs": [],
      "name": "renounceOwnership",
      "outputs": [],
      "stateMutability": "nonpayable",
      "type": "function"
    },
    {
      "inputs": [],
      "name": "rewardBalance",
      "outputs": [
        {
          "internalType": "uint256",
          "name": "",
          "type": "uint256"
        }
      ],
      "stateMutability": "view",
      "type": "function"
    },
    {
      "inputs": [
        {
          "internalType": "uint256",
          "name": "index",
          "type": "uint256"
        }
      ],
      "name": "rewardPeriods",
      "outputs": [
        {
          "components": [
            {
              "internalType": "uint256",
              "name": "id",
              "type": "uint256"
            },
            {
              "internalType": "uint256",
              "name": "reward",
              "type": "uint256"
            },
            {
              "internalType": "uint256",
              "name": "from",
              "type": "uint256"
            },
            {
              "internalType": "uint256",
              "name": "to",
              "type": "uint256"
            },
            {
              "internalType": "uint256",
              "name": "lastUpdated",
              "type": "uint256"
            },
            {
              "internalType": "uint256",
              "name": "totalStaked",
              "type": "uint256"
            },
            {
              "internalType": "uint256",
              "name": "rewardPerTokenStaked",
              "type": "uint256"
            },
            {
              "internalType": "uint256",
              "name": "totalRewardsPaid",
              "type": "uint256"
            }
          ],
          "internalType": "struct StakingRewardPool.RewardPeriod",
          "name": "",
          "type": "tuple"
        }
      ],
      "stateMutability": "view",
      "type": "function"
    },
    {
      "inputs": [
        {
          "internalType": "uint256",
          "name": "",
          "type": "uint256"
        }
      ],
      "name": "stakers",
      "outputs": [
        {
          "internalType": "address",
          "name": "",
          "type": "address"
        }
      ],
      "stateMutability": "view",
      "type": "function"
    },
    {
      "inputs": [
        {
          "internalType": "address",
          "name": "",
          "type": "address"
        }
      ],
      "name": "stakes",
      "outputs": [
        {
          "internalType": "uint256",
          "name": "",
          "type": "uint256"
        }
      ],
      "stateMutability": "view",
      "type": "function"
    },
    {
      "inputs": [
        {
          "internalType": "uint256",
          "name": "amount",
          "type": "uint256"
        }
      ],
      "name": "startStake",
      "outputs": [],
      "stateMutability": "nonpayable",
      "type": "function"
    },
    {
      "inputs": [],
      "name": "totalStakes",
      "outputs": [
        {
          "internalType": "uint256",
          "name": "",
          "type": "uint256"
        }
      ],
      "stateMutability": "view",
      "type": "function"
    },
    {
      "inputs": [
        {
          "internalType": "address",
          "name": "newOwner",
          "type": "address"
        }
      ],
      "name": "transferOwnership",
      "outputs": [],
      "stateMutability": "nonpayable",
      "type": "function"
    },
    {
      "inputs": [
        {
          "internalType": "uint256",
          "name": "amount",
          "type": "uint256"
        }
      ],
      "name": "withdraw",
      "outputs": [],
      "stateMutability": "nonpayable",
      "type": "function"
    }
  ],
  "transactionHash": "0x5631c08c22a5c8847f5f19b0771eacb20bd51b63b55f952801405c8195dd9fb4",
  "args": [
    "0xBf9DFbeFE31F28891d95DBBC1a820Db364d9e80A",
    "0xEeeeeEeeeEeEeeEeEeEeeEEEeeeeEeeeeeeeEEeE"
  ],
  "numDeployments": 1,
  "solcInputHash": "076a7278996fb05cbfaf918654cf8dda",
  "bytecode": "0x60806040526000600a553480156200001657600080fd5b50604051620035073803806200350783398181016040528101906200003c919062000282565b81818033600073ffffffffffffffffffffffffffffffffffffffff168173ffffffffffffffffffffffffffffffffffffffff1603620000b55760006040517f1e4fbdf7000000000000000000000000000000000000000000000000000000008152600401620000ac9190620002da565b60405180910390fd5b620000c6816200015460201b60201c565b5080600160006101000a81548173ffffffffffffffffffffffffffffffffffffffff021916908373ffffffffffffffffffffffffffffffffffffffff16021790555050505081600860006101000a81548173ffffffffffffffffffffffffffffffffffffffff021916908373ffffffffffffffffffffffffffffffffffffffff1602179055505050620002f7565b60008060009054906101000a900473ffffffffffffffffffffffffffffffffffffffff169050816000806101000a81548173ffffffffffffffffffffffffffffffffffffffff021916908373ffffffffffffffffffffffffffffffffffffffff1602179055508173ffffffffffffffffffffffffffffffffffffffff168173ffffffffffffffffffffffffffffffffffffffff167f8be0079c531659141344cd1fd0a4f28419497f9722a3daafe3b4186f6b6457e060405160405180910390a35050565b600080fd5b600073ffffffffffffffffffffffffffffffffffffffff82169050919050565b60006200024a826200021d565b9050919050565b6200025c816200023d565b81146200026857600080fd5b50565b6000815190506200027c8162000251565b92915050565b600080604083850312156200029c576200029b62000218565b5b6000620002ac858286016200026b565b9250506020620002bf858286016200026b565b9150509250929050565b620002d4816200023d565b82525050565b6000602082019050620002f16000830184620002c9565b92915050565b61320080620003076000396000f3fe60806040526004361061014b5760003560e01c80638da5cb5b116100b6578063bf9befb11161006f578063bf9befb114610449578063d9c5fbed14610474578063e7181edc14610490578063f2fde38b146104bb578063fad0138d146104e4578063fd5e6dd11461050f5761014b565b80638da5cb5b1461036e578063aa5c3ab414610399578063aaf63640146103c4578063b51bd40f146103ed578063b6b55f2514610416578063b88a802f146104325761014b565b80632e1a7d4d116101085780632e1a7d4d1461027257806333b365d61461029b5780635865b911146102c4578063715018a6146102ef57806376965867146103065780638252097d146103315761014b565b80630cbe28d61461015057806312065fe01461017957806316934fc4146101a457806318e01ec5146101e157806327e235e31461020a5780632ad7b6a914610247575b600080fd5b34801561015c57600080fd5b50610177600480360381019061017291906125dd565b61054c565b005b34801561018557600080fd5b5061018e6105c3565b60405161019b9190612619565b60405180910390f35b3480156101b057600080fd5b506101cb60048036038101906101c69190612692565b61060a565b6040516101d89190612619565b60405180910390f35b3480156101ed57600080fd5b50610208600480360381019061020391906125dd565b610622565b005b34801561021657600080fd5b50610231600480360381019061022c9190612692565b6107bb565b60405161023e9190612619565b60405180910390f35b34801561025357600080fd5b5061025c6107d3565b6040516102699190612723565b60405180910390f35b34801561027e57600080fd5b50610299600480360381019061029491906125dd565b61095d565b005b3480156102a757600080fd5b506102c260048036038101906102bd919061273e565b610b69565b005b3480156102d057600080fd5b506102d9610d6e565b6040516102e69190612619565b60405180910390f35b3480156102fb57600080fd5b50610304610e6c565b005b34801561031257600080fd5b5061031b610e80565b6040516103289190612619565b60405180910390f35b34801561033d57600080fd5b50610358600480360381019061035391906125dd565b610ec7565b6040516103659190612833565b60405180910390f35b34801561037a57600080fd5b50610383610f54565b604051610390919061285e565b60405180910390f35b3480156103a557600080fd5b506103ae610f7d565b6040516103bb9190612619565b60405180910390f35b3480156103d057600080fd5b506103eb60048036038101906103e691906125dd565b611020565b005b3480156103f957600080fd5b50610414600480360381019061040f91906125dd565b611035565b005b610430600480360381019061042b91906125dd565b6110e7565b005b34801561043e57600080fd5b5061044761149d565b005b34801561045557600080fd5b5061045e6114af565b60405161046b9190612619565b60405180910390f35b61048e600480360381019061048991906125dd565b6114b5565b005b34801561049c57600080fd5b506104a56114ca565b6040516104b29190612619565b60405180910390f35b3480156104c757600080fd5b506104e260048036038101906104dd9190612692565b61161e565b005b3480156104f057600080fd5b506104f96116a4565b6040516105069190612619565b60405180910390f35b34801561051b57600080fd5b50610536600480360381019061053191906125dd565b6116ae565b604051610543919061285e565b60405180910390f35b6105546116ed565b61055d816118ab565b6000610567610d6e565b90506000600960018361057a91906128a8565b8154811061058b5761058a6128dc565b5b90600052602060002090600802019050828160050160008282546105af91906128a8565b925050819055506105be611a43565b505050565b6000600260003373ffffffffffffffffffffffffffffffffffffffff1673ffffffffffffffffffffffffffffffffffffffff16815260200190815260200160002054905090565b60066020528060005260406000206000915090505481565b61062a611b0b565b8060098054905011610671576040517f08c379a000000000000000000000000000000000000000000000000000000000815260040161066890612968565b60405180910390fd5b60008190505b600160098054905061068991906128a8565b81101561074057600960018261069f9190612988565b815481106106b0576106af6128dc565b5b9060005260206000209060080201600982815481106106d2576106d16128dc565b5b906000526020600020906008020160008201548160000155600182015481600101556002820154816002015560038201548160030155600482015481600401556005820154816005015560068201548160060155600782015481600701559050508080600101915050610677565b506009805480610753576107526129bc565b5b6001900381819060005260206000209060080201600080820160009055600182016000905560028201600090556003820160009055600482016000905560058201600090556006820160009055600782016000905550509055600980549050600a8190555050565b60026020528060005260406000206000915090505481565b6107db612535565b6000600b60003373ffffffffffffffffffffffffffffffffffffffff1673ffffffffffffffffffffffffffffffffffffffff1681526020019081526020016000206040518060600160405290816000820154815260200160018201548152602001600282015481525050905060006040518060800160405280600081526020016000815260200160008152602001600081525090506108786114ca565b81600001818152505081604001518160200181815250506000610899610d6e565b9050600081111561095457600060096001836108b591906128a8565b815481106108c6576108c56128dc565b5b90600052602060002090600802016040518061010001604052908160008201548152602001600182015481526020016002820154815260200160038201548152602001600482015481526020016005820154815260200160068201548152602001600782015481525050905061093b81611b92565b8360400181815250508060e00151836060018181525050505b81935050505090565b80600260003373ffffffffffffffffffffffffffffffffffffffff1673ffffffffffffffffffffffffffffffffffffffff1681526020019081526020016000205410156109df576040517f08c379a00000000000000000000000000000000000000000000000000000000081526004016109d690612a37565b60405180910390fd5b80600260003373ffffffffffffffffffffffffffffffffffffffff1673ffffffffffffffffffffffffffffffffffffffff1681526020019081526020016000206000828254610a2e91906128a8565b9250508190555073eeeeeeeeeeeeeeeeeeeeeeeeeeeeeeeeeeeeeeee73ffffffffffffffffffffffffffffffffffffffff16600160009054906101000a900473ffffffffffffffffffffffffffffffffffffffff1673ffffffffffffffffffffffffffffffffffffffff1603610aea573373ffffffffffffffffffffffffffffffffffffffff166108fc829081150290604051600060405180830381858888f19350505050158015610ae4573d6000803e3d6000fd5b50610b18565b610b17600160009054906101000a900473ffffffffffffffffffffffffffffffffffffffff163383611bc3565b5b3373ffffffffffffffffffffffffffffffffffffffff167f7084f5476618d8e60b11ef0d7d3f06914655adb8793e28ff7f018d4c76d505d582604051610b5e9190612619565b60405180910390a250565b610b71611b0b565b60008311610bb4576040517f08c379a0000000000000000000000000000000000000000000000000000000008152600401610bab90612aa3565b60405180910390fd5b8181118015610bc257504281115b610c01576040517f08c379a0000000000000000000000000000000000000000000000000000000008152600401610bf890612b0f565b60405180910390fd5b60006009805490501480610c4a575060096001600980549050610c2491906128a8565b81548110610c3557610c346128dc565b5b90600052602060002090600802016003015482115b610c89576040517f08c379a0000000000000000000000000000000000000000000000000000000008152600401610c8090612b7b565b60405180910390fd5b60096040518061010001604052806001600980549050610ca99190612988565b8152602001858152602001848152602001838152602001428152602001600081526020016000815260200160008152509080600181540180825580915050600190039060005260206000209060080201600090919091909150600082015181600001556020820151816001015560408201518160020155606082015181600301556080820151816004015560a0820151816005015560c0820151816006015560e082015181600701555050600980549050600a81905550610d6983611c42565b505050565b600080600a5403610d825760009050610e69565b600060098054905090505b6000811115610e635760006009600183610da791906128a8565b81548110610db857610db76128dc565b5b90600052602060002090600802016040518061010001604052908160008201548152602001600182015481526020016002820154815260200160038201548152602001600482015481526020016005820154815260200160068201548152602001600782015481525050905042816040015111158015610e3c575042816060015110155b15610e4f57806000015192505050610e69565b508080610e5b90612b9b565b915050610d8d565b50600090505b90565b610e74611b0b565b610e7e6000611cf0565b565b6000600660003373ffffffffffffffffffffffffffffffffffffffff1673ffffffffffffffffffffffffffffffffffffffff16815260200190815260200160002054905090565b610ecf61255d565b60098281548110610ee357610ee26128dc565b5b906000526020600020906008020160405180610100016040529081600082015481526020016001820154815260200160028201548152602001600382015481526020016004820154815260200160058201548152602001600682015481526020016007820154815250509050919050565b60008060009054906101000a900473ffffffffffffffffffffffffffffffffffffffff16905090565b6000600860009054906101000a900473ffffffffffffffffffffffffffffffffffffffff1673ffffffffffffffffffffffffffffffffffffffff166370a08231306040518263ffffffff1660e01b8152600401610fda919061285e565b602060405180830381865afa158015610ff7573d6000803e3d6000fd5b505050506040513d601f19601f8201168201806040525081019061101b9190612bd9565b905090565b6110298161054c565b6110328161095d565b50565b600061103f610d6e565b905060008111611084576040517f08c379a000000000000000000000000000000000000000000000000000000000815260040161107b90612c52565b60405180910390fd5b61108c6116ed565b61109582611db4565b600060096001836110a691906128a8565b815481106110b7576110b66128dc565b5b90600052602060002090600802019050828160050160008282546110db9190612988565b92505081905550505050565b6000811161112a576040517f08c379a000000000000000000000000000000000000000000000000000000000815260040161112190612cbe565b60405180910390fd5b73eeeeeeeeeeeeeeeeeeeeeeeeeeeeeeeeeeeeeeee73ffffffffffffffffffffffffffffffffffffffff16600160009054906101000a900473ffffffffffffffffffffffffffffffffffffffff1673ffffffffffffffffffffffffffffffffffffffff16036111da573481146111d5576040517f08c379a00000000000000000000000000000000000000000000000000000000081526004016111cc90612d2a565b60405180910390fd5b6112e9565b80600160009054906101000a900473ffffffffffffffffffffffffffffffffffffffff1673ffffffffffffffffffffffffffffffffffffffff1663dd62ed3e33306040518363ffffffff1660e01b8152600401611238929190612d4a565b602060405180830381865afa158015611255573d6000803e3d6000fd5b505050506040513d601f19601f820116820180604052508101906112799190612bd9565b10156112ba576040517f08c379a00000000000000000000000000000000000000000000000000000000081526004016112b190612dbf565b60405180910390fd5b6112e8600160009054906101000a900473ffffffffffffffffffffffffffffffffffffffff16333084611f8f565b5b600460003373ffffffffffffffffffffffffffffffffffffffff1673ffffffffffffffffffffffffffffffffffffffff16815260200190815260200160002060009054906101000a900460ff166113f6576001600460003373ffffffffffffffffffffffffffffffffffffffff1673ffffffffffffffffffffffffffffffffffffffff16815260200190815260200160002060006101000a81548160ff0219169083151502179055506003339080600181540180825580915050600190039060005260206000200160009091909190916101000a81548173ffffffffffffffffffffffffffffffffffffffff021916908373ffffffffffffffffffffffffffffffffffffffff1602179055505b80600260003373ffffffffffffffffffffffffffffffffffffffff1673ffffffffffffffffffffffffffffffffffffffff16815260200190815260200160002060008282546114459190612988565b925050819055503373ffffffffffffffffffffffffffffffffffffffff167f2da466a7b24304f47e87fa2e1e5a81b9831ce54fec19055ce277ca2f39ba42c4826040516114929190612619565b60405180910390a250565b6114a56116ed565b6114ad611a43565b565b60075481565b6114be816110e7565b6114c781611035565b50565b6000806114d5610d6e565b9050600081036114e957600091505061161b565b600060096001836114fa91906128a8565b8154811061150b5761150a6128dc565b5b906000526020600020906008020160405180610100016040529081600082015481526020016001820154815260200160028201548152602001600382015481526020016004820154815260200160058201548152602001600682015481526020016007820154815250509050600061158282612011565b9050600061158f82612091565b90506000600b60003373ffffffffffffffffffffffffffffffffffffffff1673ffffffffffffffffffffffffffffffffffffffff1681526020019081526020016000206040518060600160405290816000820154815260200160018201548152602001600282015481525050905060008160200151905082816116129190612988565b96505050505050505b90565b611626611b0b565b600073ffffffffffffffffffffffffffffffffffffffff168173ffffffffffffffffffffffffffffffffffffffff16036116985760006040517f1e4fbdf700000000000000000000000000000000000000000000000000000000815260040161168f919061285e565b60405180910390fd5b6116a181611cf0565b50565b6000600a54905090565b600581815481106116be57600080fd5b906000526020600020016000915054906101000a900473ffffffffffffffffffffffffffffffffffffffff1681565b60006116f7610d6e565b90506000811161173c576040517f08c379a000000000000000000000000000000000000000000000000000000000815260040161173390612c52565b60405180910390fd5b6000600960018361174d91906128a8565b8154811061175e5761175d6128dc565b5b9060005260206000209060080201905060006117d5826040518061010001604052908160008201548152602001600182015481526020016002820154815260200160038201548152602001600482015481526020016005820154815260200160068201548152602001600782015481525050612011565b905060006117e282612091565b90506000600b60003373ffffffffffffffffffffffffffffffffffffffff1673ffffffffffffffffffffffffffffffffffffffff16815260200190815260200160002090508181600101600082825461183b9190612988565b925050819055508281600001819055508360060154831015611892576040517f08c379a000000000000000000000000000000000000000000000000000000000815260040161188990612e51565b60405180910390fd5b8284600601819055504284600401819055505050505050565b80600660003373ffffffffffffffffffffffffffffffffffffffff1673ffffffffffffffffffffffffffffffffffffffff16815260200190815260200160002054101561192d576040517f08c379a000000000000000000000000000000000000000000000000000000000815260040161192490612ebd565b60405180910390fd5b80600260003373ffffffffffffffffffffffffffffffffffffffff1673ffffffffffffffffffffffffffffffffffffffff168152602001908152602001600020600082825461197c9190612988565b9250508190555080600660003373ffffffffffffffffffffffffffffffffffffffff1673ffffffffffffffffffffffffffffffffffffffff16815260200190815260200160002060008282546119d291906128a8565b9250508190555080600760008282546119eb91906128a8565b925050819055503373ffffffffffffffffffffffffffffffffffffffff167f79d3df6837cc49ff0e09fd3258e6e45594e0703445bb06825e9d75156eaee8f082604051611a389190612619565b60405180910390a250565b6000600b60003373ffffffffffffffffffffffffffffffffffffffff1673ffffffffffffffffffffffffffffffffffffffff168152602001908152602001600020905060008160010154905060008114611b0757600082600101819055506000611aab610d6e565b905060006009600183611abe91906128a8565b81548110611acf57611ace6128dc565b5b9060005260206000209060080201905082816007016000828254611af39190612988565b92505081905550611b04338461218d565b50505b5050565b611b136122df565b73ffffffffffffffffffffffffffffffffffffffff16611b31610f54565b73ffffffffffffffffffffffffffffffffffffffff1614611b9057611b546122df565b6040517f118cdaa7000000000000000000000000000000000000000000000000000000008152600401611b87919061285e565b60405180910390fd5b565b60008082604001518360600151611ba991906128a8565b9050808360200151611bbb9190612f0c565b915050919050565b611c3d838473ffffffffffffffffffffffffffffffffffffffff1663a9059cbb8585604051602401611bf6929190612f3d565b604051602081830303815290604052915060e01b6020820180517bffffffffffffffffffffffffffffffffffffffffffffffffffffffff83818316178352505050506122e7565b505050565b611c4a611b0b565b600860009054906101000a900473ffffffffffffffffffffffffffffffffffffffff1673ffffffffffffffffffffffffffffffffffffffff166323b872dd3330846040518463ffffffff1660e01b8152600401611ca993929190612f66565b6020604051808303816000875af1158015611cc8573d6000803e3d6000fd5b505050506040513d601f19601f82011682018060405250810190611cec9190612fd5565b5050565b60008060009054906101000a900473ffffffffffffffffffffffffffffffffffffffff169050816000806101000a81548173ffffffffffffffffffffffffffffffffffffffff021916908373ffffffffffffffffffffffffffffffffffffffff1602179055508173ffffffffffffffffffffffffffffffffffffffff168173ffffffffffffffffffffffffffffffffffffffff167f8be0079c531659141344cd1fd0a4f28419497f9722a3daafe3b4186f6b6457e060405160405180910390a35050565b60008111611df7576040517f08c379a0000000000000000000000000000000000000000000000000000000008152600401611dee90613074565b60405180910390fd5b80600260003373ffffffffffffffffffffffffffffffffffffffff1673ffffffffffffffffffffffffffffffffffffffff168152602001908152602001600020541015611e79576040517f08c379a0000000000000000000000000000000000000000000000000000000008152600401611e70906130e0565b60405180910390fd5b80600260003373ffffffffffffffffffffffffffffffffffffffff1673ffffffffffffffffffffffffffffffffffffffff1681526020019081526020016000206000828254611ec891906128a8565b9250508190555080600660003373ffffffffffffffffffffffffffffffffffffffff1673ffffffffffffffffffffffffffffffffffffffff1681526020019081526020016000206000828254611f1e9190612988565b925050819055508060076000828254611f379190612988565b925050819055503373ffffffffffffffffffffffffffffffffffffffff167f9e71bc8eea02a63969f509818f2dafb9254532904319f9dbda79b67bd34a5f3d82604051611f849190612619565b60405180910390a250565b61200b848573ffffffffffffffffffffffffffffffffffffffff166323b872dd868686604051602401611fc493929190612f66565b604051602081830303815290604052915060e01b6020820180517bffffffffffffffffffffffffffffffffffffffffffffffffffffffff83818316178352505050506122e7565b50505050565b60008061201d83611b92565b9050600083608001514261203191906128a8565b9050600082826120419190613100565b905060008560c00151905060008660a0015114612085578560a00151633b9aca008361206d9190613100565b6120779190612f0c565b816120829190612988565b90505b80945050505050919050565b60008082036120a35760009050612188565b6000600660003373ffffffffffffffffffffffffffffffffffffffff1673ffffffffffffffffffffffffffffffffffffffff1681526020019081526020016000205490506000600b60003373ffffffffffffffffffffffffffffffffffffffff1673ffffffffffffffffffffffffffffffffffffffff168152602001908152602001600020604051806060016040529081600082015481526020016001820154815260200160028201548152505090506000633b9aca0082600001518661216a91906128a8565b846121759190613100565b61217f9190612f0c565b90508093505050505b919050565b6000600b60003373ffffffffffffffffffffffffffffffffffffffff1673ffffffffffffffffffffffffffffffffffffffff1681526020019081526020016000209050818160020160008282546121e49190612988565b92505081905550600860009054906101000a900473ffffffffffffffffffffffffffffffffffffffff1673ffffffffffffffffffffffffffffffffffffffff1663a9059cbb84846040518363ffffffff1660e01b8152600401612248929190612f3d565b6020604051808303816000875af1158015612267573d6000803e3d6000fd5b505050506040513d601f19601f8201168201806040525081019061228b9190612fd5565b508273ffffffffffffffffffffffffffffffffffffffff167fe2403640ba68fed3a2f88b7557551d1993f84b99bb10ff833f0cf8db0c5e0486836040516122d29190612619565b60405180910390a2505050565b600033905090565b6000612312828473ffffffffffffffffffffffffffffffffffffffff1661237e90919063ffffffff16565b905060008151141580156123375750808060200190518101906123359190612fd5565b155b1561237957826040517f5274afe7000000000000000000000000000000000000000000000000000000008152600401612370919061285e565b60405180910390fd5b505050565b606061238c83836000612394565b905092915050565b6060814710156123db57306040517fcd7860590000000000000000000000000000000000000000000000000000000081526004016123d2919061285e565b60405180910390fd5b6000808573ffffffffffffffffffffffffffffffffffffffff16848660405161240491906131b3565b60006040518083038185875af1925050503d8060008114612441576040519150601f19603f3d011682016040523d82523d6000602084013e612446565b606091505b5091509150612456868383612461565b925050509392505050565b60608261247657612471826124f0565b6124e8565b6000825114801561249e575060008473ffffffffffffffffffffffffffffffffffffffff163b145b156124e057836040517f9996b3150000000000000000000000000000000000000000000000000000000081526004016124d7919061285e565b60405180910390fd5b8190506124e9565b5b9392505050565b6000815111156125035780518082602001fd5b6040517f1425ea4200000000000000000000000000000000000000000000000000000000815260040160405180910390fd5b6040518060800160405280600081526020016000815260200160008152602001600081525090565b60405180610100016040528060008152602001600081526020016000815260200160008152602001600081526020016000815260200160008152602001600081525090565b600080fd5b6000819050919050565b6125ba816125a7565b81146125c557600080fd5b50565b6000813590506125d7816125b1565b92915050565b6000602082840312156125f3576125f26125a2565b5b6000612601848285016125c8565b91505092915050565b612613816125a7565b82525050565b600060208201905061262e600083018461260a565b92915050565b600073ffffffffffffffffffffffffffffffffffffffff82169050919050565b600061265f82612634565b9050919050565b61266f81612654565b811461267a57600080fd5b50565b60008135905061268c81612666565b92915050565b6000602082840312156126a8576126a76125a2565b5b60006126b68482850161267d565b91505092915050565b6126c8816125a7565b82525050565b6080820160008201516126e460008501826126bf565b5060208201516126f760208501826126bf565b50604082015161270a60408501826126bf565b50606082015161271d60608501826126bf565b50505050565b600060808201905061273860008301846126ce565b92915050565b600080600060608486031215612757576127566125a2565b5b6000612765868287016125c8565b9350506020612776868287016125c8565b9250506040612787868287016125c8565b9150509250925092565b610100820160008201516127a860008501826126bf565b5060208201516127bb60208501826126bf565b5060408201516127ce60408501826126bf565b5060608201516127e160608501826126bf565b5060808201516127f460808501826126bf565b5060a082015161280760a08501826126bf565b5060c082015161281a60c08501826126bf565b5060e082015161282d60e08501826126bf565b50505050565b6000610100820190506128496000830184612791565b92915050565b61285881612654565b82525050565b6000602082019050612873600083018461284f565b92915050565b7f4e487b7100000000000000000000000000000000000000000000000000000000600052601160045260246000fd5b60006128b3826125a7565b91506128be836125a7565b92508282039050818111156128d6576128d5612879565b5b92915050565b7f4e487b7100000000000000000000000000000000000000000000000000000000600052603260045260246000fd5b600082825260208201905092915050565b7f496e76616c69642072657761726420706861736520696e646578000000000000600082015250565b6000612952601a8361290b565b915061295d8261291c565b602082019050919050565b6000602082019050818103600083015261298181612945565b9050919050565b6000612993826125a7565b915061299e836125a7565b92508282019050808211156129b6576129b5612879565b5b92915050565b7f4e487b7100000000000000000000000000000000000000000000000000000000600052603160045260246000fd5b7f496e73756666696369656e7420746f6b656e2062616c616e6365000000000000600082015250565b6000612a21601a8361290b565b9150612a2c826129eb565b602082019050919050565b60006020820190508181036000830152612a5081612a14565b9050919050565b7f496e76616c69642072657761726420706572696f6420616d6f756e7400000000600082015250565b6000612a8d601c8361290b565b9150612a9882612a57565b602082019050919050565b60006020820190508181036000830152612abc81612a80565b9050919050565b7f496e76616c69642072657761726420706572696f6420696e74657276616c0000600082015250565b6000612af9601e8361290b565b9150612b0482612ac3565b602082019050919050565b60006020820190508181036000830152612b2881612aec565b9050919050565b7f496e76616c696420706572696f642073746172742074696d6500000000000000600082015250565b6000612b6560198361290b565b9150612b7082612b2f565b602082019050919050565b60006020820190508181036000830152612b9481612b58565b9050919050565b6000612ba6826125a7565b915060008203612bb957612bb8612879565b5b600182039050919050565b600081519050612bd3816125b1565b92915050565b600060208284031215612bef57612bee6125a2565b5b6000612bfd84828501612bc4565b91505092915050565b7f4e6f206163746976652072657761726420706572696f6420666f756e64000000600082015250565b6000612c3c601d8361290b565b9150612c4782612c06565b602082019050919050565b60006020820190508181036000830152612c6b81612c2f565b9050919050565b7f4465706f73697420616d6f756e742073686f756c64206e6f7420626520300000600082015250565b6000612ca8601e8361290b565b9150612cb382612c72565b602082019050919050565b60006020820190508181036000830152612cd781612c9b565b9050919050565b7f56616c7565206d69736d61746368000000000000000000000000000000000000600082015250565b6000612d14600e8361290b565b9150612d1f82612cde565b602082019050919050565b60006020820190508181036000830152612d4381612d07565b9050919050565b6000604082019050612d5f600083018561284f565b612d6c602083018461284f565b9392505050565b7f496e73756666696369656e7420616c6c6f77616e636500000000000000000000600082015250565b6000612da960168361290b565b9150612db482612d73565b602082019050919050565b60006020820190508181036000830152612dd881612d9c565b9050919050565b7f52657761726420646973747269627574696f6e2073686f756c64206265206d6f60008201527f6e6f746f6e696320696e6372656173696e670000000000000000000000000000602082015250565b6000612e3b60328361290b565b9150612e4682612ddf565b604082019050919050565b60006020820190508181036000830152612e6a81612e2e565b9050919050565b7f4e6f7420656e6f75676820746f6b656e73207374616b65640000000000000000600082015250565b6000612ea760188361290b565b9150612eb282612e71565b602082019050919050565b60006020820190508181036000830152612ed681612e9a565b9050919050565b7f4e487b7100000000000000000000000000000000000000000000000000000000600052601260045260246000fd5b6000612f17826125a7565b9150612f22836125a7565b925082612f3257612f31612edd565b5b828204905092915050565b6000604082019050612f52600083018561284f565b612f5f602083018461260a565b9392505050565b6000606082019050612f7b600083018661284f565b612f88602083018561284f565b612f95604083018461260a565b949350505050565b60008115159050919050565b612fb281612f9d565b8114612fbd57600080fd5b50565b600081519050612fcf81612fa9565b92915050565b600060208284031215612feb57612fea6125a2565b5b6000612ff984828501612fc0565b91505092915050565b7f5374616b65206d757374206265206120706f73697469766520616d6f756e742060008201527f67726561746572207468616e2030000000000000000000000000000000000000602082015250565b600061305e602e8361290b565b915061306982613002565b604082019050919050565b6000602082019050818103600083015261308d81613051565b9050919050565b7f4e6f7420656e6f75676820746f6b656e7320746f207374616b65000000000000600082015250565b60006130ca601a8361290b565b91506130d582613094565b602082019050919050565b600060208201905081810360008301526130f9816130bd565b9050919050565b600061310b826125a7565b9150613116836125a7565b9250828202613124816125a7565b9150828204841483151761313b5761313a612879565b5b5092915050565b600081519050919050565b600081905092915050565b60005b8381101561317657808201518184015260208101905061315b565b60008484015250505050565b600061318d82613142565b613197818561314d565b93506131a7818560208601613158565b80840191505092915050565b60006131bf8284613182565b91508190509291505056fea2646970667358221220c964e71fcb995211434123c6c0246a0f9d5aae527c0bb02bde80255a53d7d7ec64736f6c63430008180033",
  "devdoc": {
    "errors": {
      "AddressEmptyCode(address)": [
        {
          "details": "There's no code at `target` (it is not a contract)."
        }
      ],
      "AddressInsufficientBalance(address)": [
        {
          "details": "The ETH balance of the account is not enough to perform the operation."
        }
      ],
      "FailedInnerCall()": [
        {
          "details": "A call to an address target failed. The target may have reverted."
        }
      ],
      "OwnableInvalidOwner(address)": [
        {
          "details": "The owner is not a valid owner account. (eg. `address(0)`)"
        }
      ],
      "OwnableUnauthorizedAccount(address)": [
        {
          "details": "The caller account is not authorized to perform an operation."
        }
      ],
      "SafeERC20FailedOperation(address)": [
        {
          "details": "An operation with an ERC20 token failed."
        }
      ]
    },
    "kind": "dev",
    "methods": {
      "owner()": {
        "details": "Returns the address of the current owner."
      },
      "renounceOwnership()": {
        "details": "Leaves the contract without owner. It will not be possible to call `onlyOwner` functions. Can only be called by the current owner. NOTE: Renouncing ownership will leave the contract without an owner, thereby disabling any functionality that is only available to the owner."
      },
      "transferOwnership(address)": {
        "details": "Transfers ownership of the contract to a new account (`newOwner`). Can only be called by the current owner."
      }
    },
    "version": 1
  },
  "userdoc": {
    "kind": "user",
    "methods": {},
    "notice": "Pool contract to distribute reward tokens among LP token stakers proportionally to the amount and duration of the their stakes. The owner can setup multiple reward periods each one with a pre-allocated amount of reward tokens to be distributed. Users are free to add and remove tokens to their stake at any time. Users can also claim their pending reward at any time. The pool implements an efficient O(1) algo to distribute the rewards based on this paper: https://uploads-ssl.webflow.com/5ad71ffeb79acc67c8bcdaba/5ad8d1193a40977462982470_scalable-reward-distribution-paper.pdf",
    "version": 1
  },
  "storageLayout": {
    "storage": [
      {
        "astId": 8,
        "contract": "contracts/StakingRewardPool.sol:StakingRewardPool",
        "label": "_owner",
        "offset": 0,
        "slot": "0",
        "type": "t_address"
      },
      {
        "astId": 2905,
        "contract": "contracts/StakingRewardPool.sol:StakingRewardPool",
        "label": "token",
        "offset": 0,
        "slot": "1",
        "type": "t_contract(IERC20)225"
      },
      {
        "astId": 2909,
        "contract": "contracts/StakingRewardPool.sol:StakingRewardPool",
        "label": "balances",
        "offset": 0,
        "slot": "2",
        "type": "t_mapping(t_address,t_uint256)"
      },
      {
        "astId": 2912,
        "contract": "contracts/StakingRewardPool.sol:StakingRewardPool",
        "label": "usersArray",
        "offset": 0,
        "slot": "3",
        "type": "t_array(t_address)dyn_storage"
      },
      {
        "astId": 2916,
        "contract": "contracts/StakingRewardPool.sol:StakingRewardPool",
        "label": "users",
        "offset": 0,
        "slot": "4",
        "type": "t_mapping(t_address,t_bool)"
      },
      {
        "astId": 1909,
        "contract": "contracts/StakingRewardPool.sol:StakingRewardPool",
        "label": "stakers",
        "offset": 0,
        "slot": "5",
        "type": "t_array(t_address)dyn_storage"
      },
      {
        "astId": 1913,
        "contract": "contracts/StakingRewardPool.sol:StakingRewardPool",
        "label": "stakes",
        "offset": 0,
        "slot": "6",
        "type": "t_mapping(t_address,t_uint256)"
      },
      {
        "astId": 1915,
        "contract": "contracts/StakingRewardPool.sol:StakingRewardPool",
        "label": "totalStakes",
        "offset": 0,
        "slot": "7",
        "type": "t_uint256"
      },
      {
        "astId": 2101,
        "contract": "contracts/StakingRewardPool.sol:StakingRewardPool",
        "label": "rewardToken",
        "offset": 0,
        "slot": "8",
        "type": "t_contract(IERC20)225"
      },
      {
        "astId": 2105,
        "contract": "contracts/StakingRewardPool.sol:StakingRewardPool",
        "label": "_rewardPeriods",
        "offset": 0,
        "slot": "9",
        "type": "t_array(t_struct(RewardPeriod)2082_storage)dyn_storage"
      },
      {
        "astId": 2108,
        "contract": "contracts/StakingRewardPool.sol:StakingRewardPool",
        "label": "rewardPeriodsCount",
        "offset": 0,
        "slot": "10",
        "type": "t_uint256"
      },
      {
        "astId": 2126,
        "contract": "contracts/StakingRewardPool.sol:StakingRewardPool",
        "label": "userInfos",
        "offset": 0,
        "slot": "11",
        "type": "t_mapping(t_address,t_struct(UserInfo)2089_storage)"
      }
    ],
    "types": {
      "t_address": {
        "encoding": "inplace",
        "label": "address",
        "numberOfBytes": "20"
      },
      "t_array(t_address)dyn_storage": {
        "base": "t_address",
        "encoding": "dynamic_array",
        "label": "address[]",
        "numberOfBytes": "32"
      },
      "t_array(t_struct(RewardPeriod)2082_storage)dyn_storage": {
        "base": "t_struct(RewardPeriod)2082_storage",
        "encoding": "dynamic_array",
        "label": "struct StakingRewardPool.RewardPeriod[]",
        "numberOfBytes": "32"
      },
      "t_bool": {
        "encoding": "inplace",
        "label": "bool",
        "numberOfBytes": "1"
      },
      "t_contract(IERC20)225": {
        "encoding": "inplace",
        "label": "contract IERC20",
        "numberOfBytes": "20"
      },
      "t_mapping(t_address,t_bool)": {
        "encoding": "mapping",
        "key": "t_address",
        "label": "mapping(address => bool)",
        "numberOfBytes": "32",
        "value": "t_bool"
      },
      "t_mapping(t_address,t_struct(UserInfo)2089_storage)": {
        "encoding": "mapping",
        "key": "t_address",
        "label": "mapping(address => struct StakingRewardPool.UserInfo)",
        "numberOfBytes": "32",
        "value": "t_struct(UserInfo)2089_storage"
      },
      "t_mapping(t_address,t_uint256)": {
        "encoding": "mapping",
        "key": "t_address",
        "label": "mapping(address => uint256)",
        "numberOfBytes": "32",
        "value": "t_uint256"
      },
      "t_struct(RewardPeriod)2082_storage": {
        "encoding": "inplace",
        "label": "struct StakingRewardPool.RewardPeriod",
        "members": [
          {
            "astId": 2067,
            "contract": "contracts/StakingRewardPool.sol:StakingRewardPool",
            "label": "id",
            "offset": 0,
            "slot": "0",
            "type": "t_uint256"
          },
          {
            "astId": 2069,
            "contract": "contracts/StakingRewardPool.sol:StakingRewardPool",
            "label": "reward",
            "offset": 0,
            "slot": "1",
            "type": "t_uint256"
          },
          {
            "astId": 2071,
            "contract": "contracts/StakingRewardPool.sol:StakingRewardPool",
            "label": "from",
            "offset": 0,
            "slot": "2",
            "type": "t_uint256"
          },
          {
            "astId": 2073,
            "contract": "contracts/StakingRewardPool.sol:StakingRewardPool",
            "label": "to",
            "offset": 0,
            "slot": "3",
            "type": "t_uint256"
          },
          {
            "astId": 2075,
            "contract": "contracts/StakingRewardPool.sol:StakingRewardPool",
            "label": "lastUpdated",
            "offset": 0,
            "slot": "4",
            "type": "t_uint256"
          },
          {
            "astId": 2077,
            "contract": "contracts/StakingRewardPool.sol:StakingRewardPool",
            "label": "totalStaked",
            "offset": 0,
            "slot": "5",
            "type": "t_uint256"
          },
          {
            "astId": 2079,
            "contract": "contracts/StakingRewardPool.sol:StakingRewardPool",
            "label": "rewardPerTokenStaked",
            "offset": 0,
            "slot": "6",
            "type": "t_uint256"
          },
          {
            "astId": 2081,
            "contract": "contracts/StakingRewardPool.sol:StakingRewardPool",
            "label": "totalRewardsPaid",
            "offset": 0,
            "slot": "7",
            "type": "t_uint256"
          }
        ],
        "numberOfBytes": "256"
      },
      "t_struct(UserInfo)2089_storage": {
        "encoding": "inplace",
        "label": "struct StakingRewardPool.UserInfo",
        "members": [
          {
            "astId": 2084,
            "contract": "contracts/StakingRewardPool.sol:StakingRewardPool",
            "label": "userRewardPerTokenStaked",
            "offset": 0,
            "slot": "0",
            "type": "t_uint256"
          },
          {
            "astId": 2086,
            "contract": "contracts/StakingRewardPool.sol:StakingRewardPool",
            "label": "pendingRewards",
            "offset": 0,
            "slot": "1",
            "type": "t_uint256"
          },
          {
            "astId": 2088,
            "contract": "contracts/StakingRewardPool.sol:StakingRewardPool",
            "label": "rewardsPaid",
            "offset": 0,
            "slot": "2",
            "type": "t_uint256"
          }
        ],
        "numberOfBytes": "96"
      },
      "t_uint256": {
        "encoding": "inplace",
        "label": "uint256",
        "numberOfBytes": "32"
      }
    }
  }
}