{
  "contractName": "StakingRewardPool",
  "abi": [
    {
      "inputs": [
        {
          "internalType": "address",
          "name": "_rewardTokenAddress",
          "type": "address"
        },
        {
          "internalType": "address",
          "name": "_lpTokenAddress",
          "type": "address"
        }
      ],
      "stateMutability": "nonpayable",
      "type": "constructor"
    },
    {
      "anonymous": false,
      "inputs": [
        {
          "indexed": true,
          "internalType": "address",
          "name": "user",
          "type": "address"
        },
        {
          "indexed": false,
          "internalType": "uint256",
          "name": "amount",
          "type": "uint256"
        }
      ],
      "name": "Deposited",
      "type": "event"
    },
    {
      "anonymous": false,
      "inputs": [
        {
          "indexed": true,
          "internalType": "address",
          "name": "previousOwner",
          "type": "address"
        },
        {
          "indexed": true,
          "internalType": "address",
          "name": "newOwner",
          "type": "address"
        }
      ],
      "name": "OwnershipTransferred",
      "type": "event"
    },
    {
      "anonymous": false,
      "inputs": [
        {
          "indexed": true,
          "internalType": "address",
          "name": "user",
          "type": "address"
        },
        {
          "indexed": false,
          "internalType": "uint256",
          "name": "reward",
          "type": "uint256"
        }
      ],
      "name": "RewardPaid",
      "type": "event"
    },
    {
      "anonymous": false,
      "inputs": [
        {
          "indexed": true,
          "internalType": "address",
          "name": "user",
          "type": "address"
        },
        {
          "indexed": false,
          "internalType": "uint256",
          "name": "amount",
          "type": "uint256"
        }
      ],
      "name": "Staked",
      "type": "event"
    },
    {
      "anonymous": false,
      "inputs": [
        {
          "indexed": true,
          "internalType": "address",
          "name": "user",
          "type": "address"
        },
        {
          "indexed": false,
          "internalType": "uint256",
          "name": "amount",
          "type": "uint256"
        }
      ],
      "name": "UnStaked",
      "type": "event"
    },
    {
      "anonymous": false,
      "inputs": [
        {
          "indexed": true,
          "internalType": "address",
          "name": "user",
          "type": "address"
        },
        {
          "indexed": false,
          "internalType": "uint256",
          "name": "amount",
          "type": "uint256"
        }
      ],
      "name": "Withdrawn",
      "type": "event"
    },
    {
      "inputs": [
        {
          "internalType": "address",
          "name": "",
          "type": "address"
        }
      ],
      "name": "balances",
      "outputs": [
        {
          "internalType": "uint256",
          "name": "",
          "type": "uint256"
        }
      ],
      "stateMutability": "view",
      "type": "function",
      "constant": true
    },
    {
      "inputs": [
        {
          "internalType": "uint256",
          "name": "amount",
          "type": "uint256"
        }
      ],
      "name": "deposit",
      "outputs": [],
      "stateMutability": "nonpayable",
      "type": "function"
    },
    {
      "inputs": [
        {
          "internalType": "uint256",
          "name": "amount",
          "type": "uint256"
        }
      ],
      "name": "depositAndStartStake",
      "outputs": [],
      "stateMutability": "nonpayable",
      "type": "function"
    },
    {
      "inputs": [
        {
          "internalType": "uint256",
          "name": "amount",
          "type": "uint256"
        }
      ],
      "name": "endStakeAndWithdraw",
      "outputs": [],
      "stateMutability": "nonpayable",
      "type": "function"
    },
    {
      "inputs": [],
      "name": "getBalance",
      "outputs": [
        {
          "internalType": "uint256",
          "name": "",
          "type": "uint256"
        }
      ],
      "stateMutability": "view",
      "type": "function",
      "constant": true
    },
    {
      "inputs": [],
      "name": "getStakedBalance",
      "outputs": [
        {
          "internalType": "uint256",
          "name": "",
          "type": "uint256"
        }
      ],
      "stateMutability": "view",
      "type": "function",
      "constant": true
    },
    {
      "inputs": [],
      "name": "owner",
      "outputs": [
        {
          "internalType": "address",
          "name": "",
          "type": "address"
        }
      ],
      "stateMutability": "view",
      "type": "function",
      "constant": true
    },
    {
      "inputs": [],
      "name": "renounceOwnership",
      "outputs": [],
      "stateMutability": "nonpayable",
      "type": "function"
    },
    {
      "inputs": [
        {
          "internalType": "uint256",
          "name": "",
          "type": "uint256"
        }
      ],
      "name": "rewardPeriods",
      "outputs": [
        {
          "internalType": "uint256",
          "name": "id",
          "type": "uint256"
        },
        {
          "internalType": "uint256",
          "name": "reward",
          "type": "uint256"
        },
        {
          "internalType": "uint256",
          "name": "from",
          "type": "uint256"
        },
        {
          "internalType": "uint256",
          "name": "to",
          "type": "uint256"
        },
        {
          "internalType": "uint256",
          "name": "lastUpdated",
          "type": "uint256"
        },
        {
          "internalType": "uint256",
          "name": "totalStaked",
          "type": "uint256"
        },
        {
          "internalType": "uint256",
          "name": "rewardPerTokenStaked",
          "type": "uint256"
        },
        {
          "internalType": "uint256",
          "name": "totalRewardsPaid",
          "type": "uint256"
        }
      ],
      "stateMutability": "view",
      "type": "function",
      "constant": true
    },
    {
      "inputs": [
        {
          "internalType": "uint256",
          "name": "",
          "type": "uint256"
        }
      ],
      "name": "stakers",
      "outputs": [
        {
          "internalType": "address",
          "name": "",
          "type": "address"
        }
      ],
      "stateMutability": "view",
      "type": "function",
      "constant": true
    },
    {
      "inputs": [
        {
          "internalType": "address",
          "name": "",
          "type": "address"
        }
      ],
      "name": "stakes",
      "outputs": [
        {
          "internalType": "uint256",
          "name": "",
          "type": "uint256"
        }
      ],
      "stateMutability": "view",
      "type": "function",
      "constant": true
    },
    {
      "inputs": [],
      "name": "totalStakes",
      "outputs": [
        {
          "internalType": "uint256",
          "name": "",
          "type": "uint256"
        }
      ],
      "stateMutability": "view",
      "type": "function",
      "constant": true
    },
    {
      "inputs": [
        {
          "internalType": "address",
          "name": "newOwner",
          "type": "address"
        }
      ],
      "name": "transferOwnership",
      "outputs": [],
      "stateMutability": "nonpayable",
      "type": "function"
    },
    {
      "inputs": [
        {
          "internalType": "uint256",
          "name": "amount",
          "type": "uint256"
        }
      ],
      "name": "withdraw",
      "outputs": [],
      "stateMutability": "nonpayable",
      "type": "function"
    },
    {
      "inputs": [
        {
          "internalType": "uint256",
          "name": "reward",
          "type": "uint256"
        },
        {
          "internalType": "uint256",
          "name": "from",
          "type": "uint256"
        },
        {
          "internalType": "uint256",
          "name": "to",
          "type": "uint256"
        }
      ],
      "name": "newRewardPeriod",
      "outputs": [],
      "stateMutability": "nonpayable",
      "type": "function"
    },
    {
      "inputs": [],
      "name": "getRewardPeriodsCount",
      "outputs": [
        {
          "internalType": "uint256",
          "name": "",
          "type": "uint256"
        }
      ],
      "stateMutability": "view",
      "type": "function",
      "constant": true
    },
    {
      "inputs": [
        {
          "internalType": "uint256",
          "name": "index",
          "type": "uint256"
        }
      ],
      "name": "deleteRewardPeriod",
      "outputs": [],
      "stateMutability": "nonpayable",
      "type": "function"
    },
    {
      "inputs": [],
      "name": "rewardBalance",
      "outputs": [
        {
          "internalType": "uint256",
          "name": "",
          "type": "uint256"
        }
      ],
      "stateMutability": "view",
      "type": "function",
      "constant": true
    },
    {
      "inputs": [
        {
          "internalType": "uint256",
          "name": "amount",
          "type": "uint256"
        }
      ],
      "name": "startStake",
      "outputs": [],
      "stateMutability": "nonpayable",
      "type": "function"
    },
    {
      "inputs": [
        {
          "internalType": "uint256",
          "name": "amount",
          "type": "uint256"
        }
      ],
      "name": "endStake",
      "outputs": [],
      "stateMutability": "nonpayable",
      "type": "function"
    },
    {
      "inputs": [],
      "name": "claimableReward",
      "outputs": [
        {
          "internalType": "uint256",
          "name": "",
          "type": "uint256"
        }
      ],
      "stateMutability": "view",
      "type": "function",
      "constant": true
    },
    {
      "inputs": [],
      "name": "claimReward",
      "outputs": [],
      "stateMutability": "nonpayable",
      "type": "function"
    },
    {
      "inputs": [],
      "name": "getCurrentRewardPeriodId",
      "outputs": [
        {
          "internalType": "uint256",
          "name": "",
          "type": "uint256"
        }
      ],
      "stateMutability": "view",
      "type": "function",
      "constant": true
    },
    {
      "inputs": [],
      "name": "getRewardsStats",
      "outputs": [
        {
          "components": [
            {
              "internalType": "uint256",
              "name": "claimableRewards",
              "type": "uint256"
            },
            {
              "internalType": "uint256",
              "name": "rewardsPaid",
              "type": "uint256"
            },
            {
              "internalType": "uint256",
              "name": "rewardRate",
              "type": "uint256"
            },
            {
              "internalType": "uint256",
              "name": "totalRewardsPaid",
              "type": "uint256"
            }
          ],
          "internalType": "struct StakingRewardPool.RewardsStats",
          "name": "",
          "type": "tuple"
        }
      ],
      "stateMutability": "view",
      "type": "function",
      "constant": true
    },
    {
      "inputs": [],
      "name": "reset",
      "outputs": [],
      "stateMutability": "nonpayable",
      "type": "function"
    }
  ],
  "bytecode": "0x60806040525f600a55348015610013575f80fd5b506040516132d93803806132d983398181016040528101906100359190610204565b8181806100546100496100de60201b60201c565b6100e560201b60201c565b8060015f6101000a81548173ffffffffffffffffffffffffffffffffffffffff021916908373ffffffffffffffffffffffffffffffffffffffff1602179055505050508160085f6101000a81548173ffffffffffffffffffffffffffffffffffffffff021916908373ffffffffffffffffffffffffffffffffffffffff1602179055505050610242565b5f33905090565b5f805f9054906101000a900473ffffffffffffffffffffffffffffffffffffffff169050815f806101000a81548173ffffffffffffffffffffffffffffffffffffffff021916908373ffffffffffffffffffffffffffffffffffffffff1602179055508173ffffffffffffffffffffffffffffffffffffffff168173ffffffffffffffffffffffffffffffffffffffff167f8be0079c531659141344cd1fd0a4f28419497f9722a3daafe3b4186f6b6457e060405160405180910390a35050565b5f80fd5b5f73ffffffffffffffffffffffffffffffffffffffff82169050919050565b5f6101d3826101aa565b9050919050565b6101e3816101c9565b81146101ed575f80fd5b50565b5f815190506101fe816101da565b92915050565b5f806040838503121561021a576102196101a6565b5b5f610227858286016101f0565b9250506020610238858286016101f0565b9150509250929050565b61308a8061024f5f395ff3fe608060405234801561000f575f80fd5b5060043610610171575f3560e01c80638da5cb5b116100dc578063bf9befb111610095578063e7181edc1161006f578063e7181edc146103dc578063f2fde38b146103fa578063fad0138d14610416578063fd5e6dd11461043457610171565b8063bf9befb114610398578063d826f88f146103b6578063d9c5fbed146103c057610171565b80638da5cb5b146102fe578063aa5c3ab41461031c578063aaf636401461033a578063b51bd40f14610356578063b6b55f2514610372578063b88a802f1461038e57610171565b80632e1a7d4d1161012e5780632e1a7d4d1461024957806333b365d6146102655780635865b91114610281578063715018a61461029f57806376965867146102a95780638252097d146102c757610171565b80630cbe28d61461017557806312065fe01461019157806316934fc4146101af57806318e01ec5146101df57806327e235e3146101fb5780632ad7b6a91461022b575b5f80fd5b61018f600480360381019061018a9190612507565b610464565b005b6101996104db565b6040516101a69190612541565b60405180910390f35b6101c960048036038101906101c491906125b4565b61051f565b6040516101d69190612541565b60405180910390f35b6101f960048036038101906101f49190612507565b610534565b005b610215600480360381019061021091906125b4565b6106bb565b6040516102229190612541565b60405180910390f35b6102336106d0565b6040516102409190612641565b60405180910390f35b610263600480360381019061025e9190612507565b61084a565b005b61027f600480360381019061027a919061265a565b610a49565b005b610289610c42565b6040516102969190612541565b60405180910390f35b6102a7610d36565b005b6102b1610d49565b6040516102be9190612541565b60405180910390f35b6102e160048036038101906102dc9190612507565b610d8d565b6040516102f59897969594939291906126aa565b60405180910390f35b610306610de0565b6040516103139190612735565b60405180910390f35b610324610e07565b6040516103319190612541565b60405180910390f35b610354600480360381019061034f9190612507565b610ea6565b005b610370600480360381019061036b9190612507565b610ebb565b005b61038c60048036038101906103879190612507565b610f6c565b005b610396611310565b005b6103a0611322565b6040516103ad9190612541565b60405180910390f35b6103be611328565b005b6103da60048036038101906103d59190612507565b61150d565b005b6103e4611522565b6040516103f19190612541565b60405180910390f35b610414600480360381019061040f91906125b4565b61166f565b005b61041e6116f1565b60405161042b9190612541565b60405180910390f35b61044e60048036038101906104499190612507565b6116fa565b60405161045b9190612735565b60405180910390f35b61046c611735565b610475816118eb565b5f61047e610c42565b90505f6009600183610490919061277b565b815481106104a1576104a06127ae565b5b905f5260205f20906008020190506104c6838260050154611af990919063ffffffff16565b81600501819055506104d6611b0e565b505050565b5f60025f3373ffffffffffffffffffffffffffffffffffffffff1673ffffffffffffffffffffffffffffffffffffffff1681526020019081526020015f2054905090565b6006602052805f5260405f205f915090505481565b61053c611bd0565b8060098054905011610583576040517f08c379a000000000000000000000000000000000000000000000000000000000815260040161057a90612835565b60405180910390fd5b5f8190505b600160098054905061059a919061277b565b81101561064b5760096001826105b09190612853565b815481106105c1576105c06127ae565b5b905f5260205f209060080201600982815481106105e1576105e06127ae565b5b905f5260205f2090600802015f820154815f0155600182015481600101556002820154816002015560038201548160030155600482015481600401556005820154816005015560068201548160060155600782015481600701559050508080600101915050610588565b50600980548061065e5761065d612886565b5b600190038181905f5260205f2090600802015f8082015f9055600182015f9055600282015f9055600382015f9055600482015f9055600582015f9055600682015f9055600782015f905550509055600980549050600a8190555050565b6002602052805f5260405f205f915090505481565b6106d86124ac565b5f600b5f3373ffffffffffffffffffffffffffffffffffffffff1673ffffffffffffffffffffffffffffffffffffffff1681526020019081526020015f206040518060600160405290815f82015481526020016001820154815260200160028201548152505090505f60405180608001604052805f81526020015f81526020015f81526020015f815250905061076c611522565b815f01818152505081604001518160200181815250505f61078b610c42565b90505f811115610841575f60096001836107a5919061277b565b815481106107b6576107b56127ae565b5b905f5260205f209060080201604051806101000160405290815f8201548152602001600182015481526020016002820154815260200160038201548152602001600482015481526020016005820154815260200160068201548152602001600782015481525050905061082881611c4e565b8360400181815250508060e00151836060018181525050505b81935050505090565b8060025f3373ffffffffffffffffffffffffffffffffffffffff1673ffffffffffffffffffffffffffffffffffffffff1681526020019081526020015f205410156108ca576040517f08c379a00000000000000000000000000000000000000000000000000000000081526004016108c1906128fd565b60405180910390fd5b61091a8160025f3373ffffffffffffffffffffffffffffffffffffffff1673ffffffffffffffffffffffffffffffffffffffff1681526020019081526020015f2054611af990919063ffffffff16565b60025f3373ffffffffffffffffffffffffffffffffffffffff1673ffffffffffffffffffffffffffffffffffffffff1681526020019081526020015f208190555060015f9054906101000a900473ffffffffffffffffffffffffffffffffffffffff1673ffffffffffffffffffffffffffffffffffffffff1663a9059cbb33836040518363ffffffff1660e01b81526004016109b792919061291b565b6020604051808303815f875af11580156109d3573d5f803e3d5ffd5b505050506040513d601f19601f820116820180604052508101906109f79190612977565b503373ffffffffffffffffffffffffffffffffffffffff167f7084f5476618d8e60b11ef0d7d3f06914655adb8793e28ff7f018d4c76d505d582604051610a3e9190612541565b60405180910390a250565b610a51611bd0565b5f8311610a93576040517f08c379a0000000000000000000000000000000000000000000000000000000008152600401610a8a906129ec565b60405180910390fd5b8181118015610aa157504281115b610ae0576040517f08c379a0000000000000000000000000000000000000000000000000000000008152600401610ad790612a54565b60405180910390fd5b5f6009805490501480610b26575060096001600980549050610b02919061277b565b81548110610b1357610b126127ae565b5b905f5260205f2090600802016003015482115b610b65576040517f08c379a0000000000000000000000000000000000000000000000000000000008152600401610b5c90612abc565b60405180910390fd5b60096040518061010001604052806001600980549050610b859190612853565b81526020018581526020018481526020018381526020014281526020015f81526020015f81526020015f815250908060018154018082558091505060019003905f5260205f2090600802015f909190919091505f820151815f01556020820151816001015560408201518160020155606082015181600301556080820151816004015560a0820151816005015560c0820151816006015560e082015181600701555050600980549050600a81905550610c3d83611c8c565b505050565b5f80600a5403610c54575f9050610d33565b5f60098054905090505b5f811115610d2e575f6009600183610c76919061277b565b81548110610c8757610c866127ae565b5b905f5260205f209060080201604051806101000160405290815f8201548152602001600182015481526020016002820154815260200160038201548152602001600482015481526020016005820154815260200160068201548152602001600782015481525050905042816040015111158015610d08575042816060015110155b15610d1a57805f015192505050610d33565b508080610d2690612ada565b915050610c5e565b505f90505b90565b610d3e611bd0565b610d475f611d36565b565b5f60065f3373ffffffffffffffffffffffffffffffffffffffff1673ffffffffffffffffffffffffffffffffffffffff1681526020019081526020015f2054905090565b60098181548110610d9c575f80fd5b905f5260205f2090600802015f91509050805f0154908060010154908060020154908060030154908060040154908060050154908060060154908060070154905088565b5f805f9054906101000a900473ffffffffffffffffffffffffffffffffffffffff16905090565b5f60085f9054906101000a900473ffffffffffffffffffffffffffffffffffffffff1673ffffffffffffffffffffffffffffffffffffffff166370a08231306040518263ffffffff1660e01b8152600401610e629190612735565b602060405180830381865afa158015610e7d573d5f803e3d5ffd5b505050506040513d601f19601f82011682018060405250810190610ea19190612b15565b905090565b610eaf81610464565b610eb88161084a565b50565b5f610ec4610c42565b90505f8111610f08576040517f08c379a0000000000000000000000000000000000000000000000000000000008152600401610eff90612b8a565b60405180910390fd5b610f10611735565b610f1982611df7565b5f6009600183610f29919061277b565b81548110610f3a57610f396127ae565b5b905f5260205f2090600802019050610f5f83826005015461204790919063ffffffff16565b8160050181905550505050565b5f8111610fae576040517f08c379a0000000000000000000000000000000000000000000000000000000008152600401610fa590612bf2565b60405180910390fd5b8060015f9054906101000a900473ffffffffffffffffffffffffffffffffffffffff1673ffffffffffffffffffffffffffffffffffffffff1663dd62ed3e33306040518363ffffffff1660e01b815260040161100b929190612c10565b602060405180830381865afa158015611026573d5f803e3d5ffd5b505050506040513d601f19601f8201168201806040525081019061104a9190612b15565b101561108b576040517f08c379a000000000000000000000000000000000000000000000000000000000815260040161108290612c81565b60405180910390fd5b6110db8160025f3373ffffffffffffffffffffffffffffffffffffffff1673ffffffffffffffffffffffffffffffffffffffff1681526020019081526020015f205461204790919063ffffffff16565b60025f3373ffffffffffffffffffffffffffffffffffffffff1673ffffffffffffffffffffffffffffffffffffffff1681526020019081526020015f208190555060045f3373ffffffffffffffffffffffffffffffffffffffff1673ffffffffffffffffffffffffffffffffffffffff1681526020019081526020015f205f9054906101000a900460ff1661122057600160045f3373ffffffffffffffffffffffffffffffffffffffff1673ffffffffffffffffffffffffffffffffffffffff1681526020019081526020015f205f6101000a81548160ff021916908315150217905550600333908060018154018082558091505060019003905f5260205f20015f9091909190916101000a81548173ffffffffffffffffffffffffffffffffffffffff021916908373ffffffffffffffffffffffffffffffffffffffff1602179055505b60015f9054906101000a900473ffffffffffffffffffffffffffffffffffffffff1673ffffffffffffffffffffffffffffffffffffffff166323b872dd3330846040518463ffffffff1660e01b815260040161127e93929190612c9f565b6020604051808303815f875af115801561129a573d5f803e3d5ffd5b505050506040513d601f19601f820116820180604052508101906112be9190612977565b503373ffffffffffffffffffffffffffffffffffffffff167f2da466a7b24304f47e87fa2e1e5a81b9831ce54fec19055ce277ca2f39ba42c4826040516113059190612541565b60405180910390a250565b611318611735565b611320611b0e565b565b60075481565b611330611bd0565b5f5b6009805490508110156113a65760098181548110611353576113526127ae565b5b905f5260205f2090600802015f8082015f9055600182015f9055600282015f9055600382015f9055600482015f9055600582015f9055600682015f9055600782015f905550508080600101915050611332565b505f600a819055505f5b60038054905081101561145957600b5f600383815481106113d4576113d36127ae565b5b905f5260205f20015f9054906101000a900473ffffffffffffffffffffffffffffffffffffffff1673ffffffffffffffffffffffffffffffffffffffff1673ffffffffffffffffffffffffffffffffffffffff1681526020019081526020015f205f8082015f9055600182015f9055600282015f9055505080806001019150506113b0565b505f611463610e07565b905060085f9054906101000a900473ffffffffffffffffffffffffffffffffffffffff1673ffffffffffffffffffffffffffffffffffffffff1663a9059cbb33836040518363ffffffff1660e01b81526004016114c192919061291b565b6020604051808303815f875af11580156114dd573d5f803e3d5ffd5b505050506040513d601f19601f820116820180604052508101906115019190612977565b5061150a61205c565b50565b61151681610f6c565b61151f81610ebb565b50565b5f8061152c610c42565b90505f810361153e575f91505061166c565b5f600960018361154e919061277b565b8154811061155f5761155e6127ae565b5b905f5260205f209060080201604051806101000160405290815f820154815260200160018201548152602001600282015481526020016003820154815260200160048201548152602001600582015481526020016006820154815260200160078201548152505090505f6115d282612184565b90505f6115de82612226565b90505f600b5f3373ffffffffffffffffffffffffffffffffffffffff1673ffffffffffffffffffffffffffffffffffffffff1681526020019081526020015f206040518060600160405290815f82015481526020016001820154815260200160028201548152505090505f81602001519050611663838261204790919063ffffffff16565b96505050505050505b90565b611677611bd0565b5f73ffffffffffffffffffffffffffffffffffffffff168173ffffffffffffffffffffffffffffffffffffffff16036116e5576040517f08c379a00000000000000000000000000000000000000000000000000000000081526004016116dc90612d44565b60405180910390fd5b6116ee81611d36565b50565b5f600a54905090565b60058181548110611709575f80fd5b905f5260205f20015f915054906101000a900473ffffffffffffffffffffffffffffffffffffffff1681565b5f61173e610c42565b90505f8111611782576040517f08c379a000000000000000000000000000000000000000000000000000000000815260040161177990612b8a565b60405180910390fd5b5f6009600183611792919061277b565b815481106117a3576117a26127ae565b5b905f5260205f20906008020190505f61181682604051806101000160405290815f8201548152602001600182015481526020016002820154815260200160038201548152602001600482015481526020016005820154815260200160068201548152602001600782015481525050612184565b90505f61182282612226565b90505f600b5f3373ffffffffffffffffffffffffffffffffffffffff1673ffffffffffffffffffffffffffffffffffffffff1681526020019081526020015f20905061187b82826001015461204790919063ffffffff16565b816001018190555082815f018190555083600601548310156118d2576040517f08c379a00000000000000000000000000000000000000000000000000000000081526004016118c990612dd2565b60405180910390fd5b8284600601819055504284600401819055505050505050565b8060065f3373ffffffffffffffffffffffffffffffffffffffff1673ffffffffffffffffffffffffffffffffffffffff1681526020019081526020015f2054101561196b576040517f08c379a000000000000000000000000000000000000000000000000000000000815260040161196290612e3a565b60405180910390fd5b6119bb8160025f3373ffffffffffffffffffffffffffffffffffffffff1673ffffffffffffffffffffffffffffffffffffffff1681526020019081526020015f205461204790919063ffffffff16565b60025f3373ffffffffffffffffffffffffffffffffffffffff1673ffffffffffffffffffffffffffffffffffffffff1681526020019081526020015f2081905550611a4c8160065f3373ffffffffffffffffffffffffffffffffffffffff1673ffffffffffffffffffffffffffffffffffffffff1681526020019081526020015f2054611af990919063ffffffff16565b60065f3373ffffffffffffffffffffffffffffffffffffffff1673ffffffffffffffffffffffffffffffffffffffff1681526020019081526020015f2081905550611aa281600754611af990919063ffffffff16565b6007819055503373ffffffffffffffffffffffffffffffffffffffff167f79d3df6837cc49ff0e09fd3258e6e45594e0703445bb06825e9d75156eaee8f082604051611aee9190612541565b60405180910390a250565b5f8183611b06919061277b565b905092915050565b5f600b5f3373ffffffffffffffffffffffffffffffffffffffff1673ffffffffffffffffffffffffffffffffffffffff1681526020019081526020015f2090505f816001015490505f8114611bcc575f82600101819055505f611b6f610c42565b90505f6009600183611b81919061277b565b81548110611b9257611b916127ae565b5b905f5260205f2090600802019050611bb783826007015461204790919063ffffffff16565b8160070181905550611bc9338461232c565b50505b5050565b611bd861247b565b73ffffffffffffffffffffffffffffffffffffffff16611bf6610de0565b73ffffffffffffffffffffffffffffffffffffffff1614611c4c576040517f08c379a0000000000000000000000000000000000000000000000000000000008152600401611c4390612ea2565b60405180910390fd5b565b5f80611c6b83604001518460600151611af990919063ffffffff16565b9050611c8481846020015161248290919063ffffffff16565b915050919050565b611c94611bd0565b60085f9054906101000a900473ffffffffffffffffffffffffffffffffffffffff1673ffffffffffffffffffffffffffffffffffffffff166323b872dd3330846040518463ffffffff1660e01b8152600401611cf293929190612c9f565b6020604051808303815f875af1158015611d0e573d5f803e3d5ffd5b505050506040513d601f19601f82011682018060405250810190611d329190612977565b5050565b5f805f9054906101000a900473ffffffffffffffffffffffffffffffffffffffff169050815f806101000a81548173ffffffffffffffffffffffffffffffffffffffff021916908373ffffffffffffffffffffffffffffffffffffffff1602179055508173ffffffffffffffffffffffffffffffffffffffff168173ffffffffffffffffffffffffffffffffffffffff167f8be0079c531659141344cd1fd0a4f28419497f9722a3daafe3b4186f6b6457e060405160405180910390a35050565b5f8111611e39576040517f08c379a0000000000000000000000000000000000000000000000000000000008152600401611e3090612f30565b60405180910390fd5b8060025f3373ffffffffffffffffffffffffffffffffffffffff1673ffffffffffffffffffffffffffffffffffffffff1681526020019081526020015f20541015611eb9576040517f08c379a0000000000000000000000000000000000000000000000000000000008152600401611eb090612f98565b60405180910390fd5b611f098160025f3373ffffffffffffffffffffffffffffffffffffffff1673ffffffffffffffffffffffffffffffffffffffff1681526020019081526020015f2054611af990919063ffffffff16565b60025f3373ffffffffffffffffffffffffffffffffffffffff1673ffffffffffffffffffffffffffffffffffffffff1681526020019081526020015f2081905550611f9a8160065f3373ffffffffffffffffffffffffffffffffffffffff1673ffffffffffffffffffffffffffffffffffffffff1681526020019081526020015f205461204790919063ffffffff16565b60065f3373ffffffffffffffffffffffffffffffffffffffff1673ffffffffffffffffffffffffffffffffffffffff1681526020019081526020015f2081905550611ff08160075461204790919063ffffffff16565b6007819055503373ffffffffffffffffffffffffffffffffffffffff167f9e71bc8eea02a63969f509818f2dafb9254532904319f9dbda79b67bd34a5f3d8260405161203c9190612541565b60405180910390a250565b5f81836120549190612853565b905092915050565b612064611bd0565b5f5b60038054905081101561217a575f60025f6003848154811061208b5761208a6127ae565b5b905f5260205f20015f9054906101000a900473ffffffffffffffffffffffffffffffffffffffff1673ffffffffffffffffffffffffffffffffffffffff1673ffffffffffffffffffffffffffffffffffffffff1681526020019081526020015f20819055505f60065f60038481548110612108576121076127ae565b5b905f5260205f20015f9054906101000a900473ffffffffffffffffffffffffffffffffffffffff1673ffffffffffffffffffffffffffffffffffffffff1673ffffffffffffffffffffffffffffffffffffffff1681526020019081526020015f20819055508080600101915050612066565b505f600781905550565b5f8061218f83611c4e565b90505f6121a9846080015142611af990919063ffffffff16565b90505f6121bf838361249790919063ffffffff16565b90505f8560c0015190505f8660a001511461221a576122176122048760a001516121f6633b9aca008661249790919063ffffffff16565b61248290919063ffffffff16565b8760c0015161204790919063ffffffff16565b90505b80945050505050919050565b5f808203612236575f9050612327565b5f60065f3373ffffffffffffffffffffffffffffffffffffffff1673ffffffffffffffffffffffffffffffffffffffff1681526020019081526020015f205490505f600b5f3373ffffffffffffffffffffffffffffffffffffffff1673ffffffffffffffffffffffffffffffffffffffff1681526020019081526020015f206040518060600160405290815f82015481526020016001820154815260200160028201548152505090505f61231e633b9aca00612310612301855f015189611af990919063ffffffff16565b8661249790919063ffffffff16565b61248290919063ffffffff16565b90508093505050505b919050565b5f600b5f3373ffffffffffffffffffffffffffffffffffffffff1673ffffffffffffffffffffffffffffffffffffffff1681526020019081526020015f20905061238382826002015461204790919063ffffffff16565b816002018190555060085f9054906101000a900473ffffffffffffffffffffffffffffffffffffffff1673ffffffffffffffffffffffffffffffffffffffff1663a9059cbb84846040518363ffffffff1660e01b81526004016123e792919061291b565b6020604051808303815f875af1158015612403573d5f803e3d5ffd5b505050506040513d601f19601f820116820180604052508101906124279190612977565b508273ffffffffffffffffffffffffffffffffffffffff167fe2403640ba68fed3a2f88b7557551d1993f84b99bb10ff833f0cf8db0c5e04868360405161246e9190612541565b60405180910390a2505050565b5f33905090565b5f818361248f9190612fe3565b905092915050565b5f81836124a49190613013565b905092915050565b60405180608001604052805f81526020015f81526020015f81526020015f81525090565b5f80fd5b5f819050919050565b6124e6816124d4565b81146124f0575f80fd5b50565b5f81359050612501816124dd565b92915050565b5f6020828403121561251c5761251b6124d0565b5b5f612529848285016124f3565b91505092915050565b61253b816124d4565b82525050565b5f6020820190506125545f830184612532565b92915050565b5f73ffffffffffffffffffffffffffffffffffffffff82169050919050565b5f6125838261255a565b9050919050565b61259381612579565b811461259d575f80fd5b50565b5f813590506125ae8161258a565b92915050565b5f602082840312156125c9576125c86124d0565b5b5f6125d6848285016125a0565b91505092915050565b6125e8816124d4565b82525050565b608082015f8201516126025f8501826125df565b50602082015161261560208501826125df565b50604082015161262860408501826125df565b50606082015161263b60608501826125df565b50505050565b5f6080820190506126545f8301846125ee565b92915050565b5f805f60608486031215612671576126706124d0565b5b5f61267e868287016124f3565b935050602061268f868287016124f3565b92505060406126a0868287016124f3565b9150509250925092565b5f610100820190506126be5f83018b612532565b6126cb602083018a612532565b6126d86040830189612532565b6126e56060830188612532565b6126f26080830187612532565b6126ff60a0830186612532565b61270c60c0830185612532565b61271960e0830184612532565b9998505050505050505050565b61272f81612579565b82525050565b5f6020820190506127485f830184612726565b92915050565b7f4e487b71000000000000000000000000000000000000000000000000000000005f52601160045260245ffd5b5f612785826124d4565b9150612790836124d4565b92508282039050818111156127a8576127a761274e565b5b92915050565b7f4e487b71000000000000000000000000000000000000000000000000000000005f52603260045260245ffd5b5f82825260208201905092915050565b7f496e76616c69642072657761726420706861736520696e6465780000000000005f82015250565b5f61281f601a836127db565b915061282a826127eb565b602082019050919050565b5f6020820190508181035f83015261284c81612813565b9050919050565b5f61285d826124d4565b9150612868836124d4565b92508282019050808211156128805761287f61274e565b5b92915050565b7f4e487b71000000000000000000000000000000000000000000000000000000005f52603160045260245ffd5b7f496e73756666696369656e7420746f6b656e2062616c616e63650000000000005f82015250565b5f6128e7601a836127db565b91506128f2826128b3565b602082019050919050565b5f6020820190508181035f830152612914816128db565b9050919050565b5f60408201905061292e5f830185612726565b61293b6020830184612532565b9392505050565b5f8115159050919050565b61295681612942565b8114612960575f80fd5b50565b5f815190506129718161294d565b92915050565b5f6020828403121561298c5761298b6124d0565b5b5f61299984828501612963565b91505092915050565b7f496e76616c69642072657761726420706572696f6420616d6f756e74000000005f82015250565b5f6129d6601c836127db565b91506129e1826129a2565b602082019050919050565b5f6020820190508181035f830152612a03816129ca565b9050919050565b7f496e76616c69642072657761726420706572696f6420696e74657276616c00005f82015250565b5f612a3e601e836127db565b9150612a4982612a0a565b602082019050919050565b5f6020820190508181035f830152612a6b81612a32565b9050919050565b7f496e76616c696420706572696f642073746172742074696d65000000000000005f82015250565b5f612aa66019836127db565b9150612ab182612a72565b602082019050919050565b5f6020820190508181035f830152612ad381612a9a565b9050919050565b5f612ae4826124d4565b91505f8203612af657612af561274e565b5b600182039050919050565b5f81519050612b0f816124dd565b92915050565b5f60208284031215612b2a57612b296124d0565b5b5f612b3784828501612b01565b91505092915050565b7f4e6f206163746976652072657761726420706572696f6420666f756e640000005f82015250565b5f612b74601d836127db565b9150612b7f82612b40565b602082019050919050565b5f6020820190508181035f830152612ba181612b68565b9050919050565b7f4465706f73697420616d6f756e742073686f756c64206e6f74206265203000005f82015250565b5f612bdc601e836127db565b9150612be782612ba8565b602082019050919050565b5f6020820190508181035f830152612c0981612bd0565b9050919050565b5f604082019050612c235f830185612726565b612c306020830184612726565b9392505050565b7f496e73756666696369656e7420616c6c6f77616e6365000000000000000000005f82015250565b5f612c6b6016836127db565b9150612c7682612c37565b602082019050919050565b5f6020820190508181035f830152612c9881612c5f565b9050919050565b5f606082019050612cb25f830186612726565b612cbf6020830185612726565b612ccc6040830184612532565b949350505050565b7f4f776e61626c653a206e6577206f776e657220697320746865207a65726f20615f8201527f6464726573730000000000000000000000000000000000000000000000000000602082015250565b5f612d2e6026836127db565b9150612d3982612cd4565b604082019050919050565b5f6020820190508181035f830152612d5b81612d22565b9050919050565b7f52657761726420646973747269627574696f6e2073686f756c64206265206d6f5f8201527f6e6f746f6e696320696e6372656173696e670000000000000000000000000000602082015250565b5f612dbc6032836127db565b9150612dc782612d62565b604082019050919050565b5f6020820190508181035f830152612de981612db0565b9050919050565b7f4e6f7420656e6f75676820746f6b656e73207374616b656400000000000000005f82015250565b5f612e246018836127db565b9150612e2f82612df0565b602082019050919050565b5f6020820190508181035f830152612e5181612e18565b9050919050565b7f4f776e61626c653a2063616c6c6572206973206e6f7420746865206f776e65725f82015250565b5f612e8c6020836127db565b9150612e9782612e58565b602082019050919050565b5f6020820190508181035f830152612eb981612e80565b9050919050565b7f5374616b65206d757374206265206120706f73697469766520616d6f756e74205f8201527f67726561746572207468616e2030000000000000000000000000000000000000602082015250565b5f612f1a602e836127db565b9150612f2582612ec0565b604082019050919050565b5f6020820190508181035f830152612f4781612f0e565b9050919050565b7f4e6f7420656e6f75676820746f6b656e7320746f207374616b650000000000005f82015250565b5f612f82601a836127db565b9150612f8d82612f4e565b602082019050919050565b5f6020820190508181035f830152612faf81612f76565b9050919050565b7f4e487b71000000000000000000000000000000000000000000000000000000005f52601260045260245ffd5b5f612fed826124d4565b9150612ff8836124d4565b92508261300857613007612fb6565b5b828204905092915050565b5f61301d826124d4565b9150613028836124d4565b9250828202613036816124d4565b9150828204841483151761304d5761304c61274e565b5b509291505056fea2646970667358221220781ec98b2f79b5a79be9a809cebd5f82a16756e8396cdcdd10763c0c9ef3435264736f6c634300081a0033",
  "immutableReferences": {},
  "source": "// SPDX-License-Identifier: MIT\npragma solidity ^0.8.0;\npragma abicoder v2;\n\nimport \"./StakingPool.sol\";\nimport \"../node_modules/@openzeppelin/contracts/utils/math/Math.sol\";\n\n/**\n * Pool contract to distribute reward tokens among LP token stakers proportionally to the amount and duration of the their stakes.\n * The owner can setup multiple reward periods each one with a pre-allocated amount of reward tokens to be distributed.\n * Users are free to add and remove tokens to their stake at any time.\n * Users can also claim their pending reward at any time.\n\n * The pool implements an efficient O(1) algo to distribute the rewards based on this paper:\n * https://uploads-ssl.webflow.com/5ad71ffeb79acc67c8bcdaba/5ad8d1193a40977462982470_scalable-reward-distribution-paper.pdf\n */\ncontract StakingRewardPool is StakingPool  {\n\n    using SafeMath for uint256;\n\n    event RewardPaid(address indexed user, uint256 reward);\n\n    struct RewardPeriod {\n        uint id;\n        uint reward;\n        uint from;\n        uint to;\n        uint lastUpdated; // when the totalStakedWeight was last updated (after last stake was ended)\n        uint totalStaked; // T: sum of all active stake deposits\n        uint rewardPerTokenStaked; // S: SUM(reward/T) - sum of all rewards distributed divided all active stakes\n        uint totalRewardsPaid; \n    }\n\n    struct UserInfo {\n        uint userRewardPerTokenStaked;\n        uint pendingRewards;\n        uint rewardsPaid;\n    }\n\n    struct RewardsStats {\n        // user stats\n        uint claimableRewards;\n        uint rewardsPaid;\n        // general stats\n        uint rewardRate;\n        uint totalRewardsPaid;\n    }\n\n\n    IERC20 internal rewardToken;\n    RewardPeriod[] public rewardPeriods;\n    uint rewardPeriodsCount = 0;\n\n\n    mapping(address => UserInfo) userInfos;\n\n    // mapping(address => uint) userRewardPerTokenStaked;\n    // mapping (address => uint) pendingRewards;\n\n    uint constant rewardPrecision = 1e9;\n\n\n    constructor(address _rewardTokenAddress, address _lpTokenAddress) StakingPool(_rewardTokenAddress, _lpTokenAddress) {\n        rewardToken = IERC20(_rewardTokenAddress);\n    }\n\n\n    function newRewardPeriod(uint reward, uint from, uint to) public onlyOwner {\n        require(reward > 0, \"Invalid reward period amount\");\n        require(to > from && to > block.timestamp, \"Invalid reward period interval\");\n        require(rewardPeriods.length == 0 || from > rewardPeriods[rewardPeriods.length-1].to, \"Invalid period start time\");\n\n        rewardPeriods.push(RewardPeriod(rewardPeriods.length+1, reward, from, to, block.timestamp, 0, 0, 0));\n        rewardPeriodsCount = rewardPeriods.length;\n        depositReward(reward);\n    }\n\n\n    function getRewardPeriodsCount() public view returns(uint) {\n        return rewardPeriodsCount;\n    }\n\n\n    function deleteRewardPeriod(uint index) public onlyOwner {\n        require(rewardPeriods.length > index, \"Invalid reward phase index\");\n        for (uint i=index; i<rewardPeriods.length-1; i++) {\n            rewardPeriods[i] = rewardPeriods[i+1];\n        }\n        rewardPeriods.pop();\n        rewardPeriodsCount = rewardPeriods.length;\n    }\n\n\n    function rewardBalance() public view returns (uint) {\n        return rewardToken.balanceOf(address(this));\n    }\n\n\n    // Deposit ETB token rewards into this contract\n    function depositReward(uint amount) internal onlyOwner {\n        rewardToken.transferFrom(msg.sender, address(this), amount);\n    }\n\n\n    function startStake(uint amount) public override {\n        uint periodId = getCurrentRewardPeriodId();\n        require(periodId > 0, \"No active reward period found\");\n        update();\n\n        super.startStake(amount);\n\n        // update total tokens staked\n        RewardPeriod storage period = rewardPeriods[periodId-1];\n        period.totalStaked = period.totalStaked.add(amount);\n    }\n\n    function endStake(uint amount) public override {\n        update();\n        super.endStake(amount);\n\n        // update total tokens staked\n        uint periodId = getCurrentRewardPeriodId();\n        RewardPeriod storage period = rewardPeriods[periodId-1];\n        period.totalStaked = period.totalStaked.sub(amount);\n        \n        claim();\n    }\n\n    function claimableReward() view public returns (uint) {\n        uint periodId = getCurrentRewardPeriodId();\n        if (periodId == 0) return 0;\n\n        RewardPeriod memory period = rewardPeriods[periodId-1];\n        uint newRewardDistribution = calculateRewardDistribution(period);\n        uint reward = calculateReward(newRewardDistribution);\n\n        UserInfo memory userInfo = userInfos[msg.sender];\n        uint pending = userInfo.pendingRewards;\n\n        return pending.add(reward);\n    }\n \n    function claimReward() public {\n        update();\n        claim();\n    }\n\n    function claim() internal {\n        UserInfo storage userInfo = userInfos[msg.sender];\n        uint rewards = userInfo.pendingRewards;\n        if (rewards != 0) {\n            userInfo.pendingRewards = 0;\n\n            uint periodId = getCurrentRewardPeriodId();\n            RewardPeriod storage period = rewardPeriods[periodId-1];\n            period.totalRewardsPaid = period.totalRewardsPaid.add(rewards);\n\n            payReward(msg.sender, rewards);\n        }\n    }\n\n    function getCurrentRewardPeriodId() public view returns (uint) {\n        if (rewardPeriodsCount == 0) return 0;\n        for (uint i=rewardPeriods.length; i>0; i--) {\n            RewardPeriod memory period = rewardPeriods[i-1];\n            if (period.from <= block.timestamp && period.to >= block.timestamp) {\n                return period.id;\n            }\n        }\n        return 0;\n    }\n\n\n    function getRewardsStats() public view returns (RewardsStats memory) {\n        UserInfo memory userInfo = userInfos[msg.sender];\n\n        RewardsStats memory stats = RewardsStats(0, 0, 0, 0);\n        // user stats\n        stats.claimableRewards = claimableReward();\n        stats.rewardsPaid = userInfo.rewardsPaid;\n\n        // reward period stats\n        uint periodId = getCurrentRewardPeriodId();\n        if (periodId > 0) {\n            RewardPeriod memory period = rewardPeriods[periodId-1];\n            stats.rewardRate = rewardRate(period);\n            stats.totalRewardsPaid = period.totalRewardsPaid;\n        }\n\n        return stats;\n    }\n\n\n    function rewardRate(RewardPeriod memory period) internal pure returns (uint) {\n        uint duration = period.to.sub(period.from);\n        return period.reward.div(duration);\n    }\n\n    function payReward(address account, uint reward) internal {\n        UserInfo storage userInfo = userInfos[msg.sender];\n        userInfo.rewardsPaid = userInfo.rewardsPaid.add(reward);\n        rewardToken.transfer(account, reward);\n\n        emit RewardPaid(account, reward);\n    }\n\n\n    /// Reward calcualtion logic\n\n    function update() internal {\n        uint periodId = getCurrentRewardPeriodId();\n        require(periodId > 0, \"No active reward period found\");\n\n        RewardPeriod storage period = rewardPeriods[periodId-1];\n        uint rewardDistribuedPerToken = calculateRewardDistribution(period);\n\n        // update pending rewards reward since rewardPerTokenStaked was updated\n        uint reward = calculateReward(rewardDistribuedPerToken);\n        UserInfo storage userInfo = userInfos[msg.sender];\n        userInfo.pendingRewards = userInfo.pendingRewards.add(reward);\n        userInfo.userRewardPerTokenStaked = rewardDistribuedPerToken;\n\n        require(rewardDistribuedPerToken >= period.rewardPerTokenStaked, \"Reward distribution should be monotonic increasing\");\n\n        period.rewardPerTokenStaked = rewardDistribuedPerToken;\n        period.lastUpdated = block.timestamp;\n    }\n\n\n    function calculateRewardDistribution(RewardPeriod memory period) view internal returns (uint) {\n\n        // calculate total reward to be distributed since period.lastUpdated\n        uint rate = rewardRate(period);\n        uint deltaTime = block.timestamp.sub(period.lastUpdated);\n        uint reward = deltaTime.mul(rate);\n\n        uint newRewardPerTokenStaked = period.rewardPerTokenStaked;  // 0\n        if (period.totalStaked != 0) {\n            // S = S + r / T\n            newRewardPerTokenStaked = period.rewardPerTokenStaked.add( \n                reward.mul(rewardPrecision).div(period.totalStaked)\n            );\n        }\n\n        return newRewardPerTokenStaked;\n    }\n\n\n    function calculateReward(uint rewardDistribution) internal view returns (uint) {\n        if (rewardDistribution == 0) return 0;\n\n        uint staked = stakes[msg.sender];\n        UserInfo memory userInfo = userInfos[msg.sender];\n        uint reward = staked.mul(\n            rewardDistribution.sub(userInfo.userRewardPerTokenStaked)\n        ).div(rewardPrecision);\n\n        return reward;\n    }\n\n\n    // HELPERS - Used in tests\n\n    function reset() public override onlyOwner {\n        for (uint i=0; i<rewardPeriods.length; i++) {\n            delete rewardPeriods[i];\n        }\n        rewardPeriodsCount = 0;\n        for (uint i=0; i<usersArray.length; i++) {\n            delete userInfos[usersArray[i]];\n        }\n        // return leftover rewards to owner\n        uint leftover = rewardBalance();\n        rewardToken.transfer(msg.sender, leftover);\n        super.reset();\n    }\n\n}\n",
  "sourcePath": "/Users/user/Documents/stakedu/contracts/StakingRewardPool.sol",
  "compiler": {
    "name": "solc",
    "version": "0.8.26+commit.8a97fa7a.Emscripten.clang"
  },
  "schemaVersion": "3.4.16",
  "updatedAt": "2024-08-14T12:28:02.408Z",
  "networkType": "ethereum",
  "devdoc": {
    "kind": "dev",
    "methods": {
      "owner()": {
        "details": "Returns the address of the current owner."
      },
      "renounceOwnership()": {
        "details": "Leaves the contract without owner. It will not be possible to call `onlyOwner` functions. Can only be called by the current owner. NOTE: Renouncing ownership will leave the contract without an owner, thereby disabling any functionality that is only available to the owner."
      },
      "transferOwnership(address)": {
        "details": "Transfers ownership of the contract to a new account (`newOwner`). Can only be called by the current owner."
      }
    },
    "version": 1
  },
  "userdoc": {
    "kind": "user",
    "methods": {},
    "notice": "Pool contract to distribute reward tokens among LP token stakers proportionally to the amount and duration of the their stakes. The owner can setup multiple reward periods each one with a pre-allocated amount of reward tokens to be distributed. Users are free to add and remove tokens to their stake at any time. Users can also claim their pending reward at any time. The pool implements an efficient O(1) algo to distribute the rewards based on this paper: https://uploads-ssl.webflow.com/5ad71ffeb79acc67c8bcdaba/5ad8d1193a40977462982470_scalable-reward-distribution-paper.pdf",
    "version": 1
  }
}