{
  "contractName": "StakingPool",
  "abi": [
    {
      "inputs": [
        {
          "internalType": "address",
          "name": "_rewardTokenAddress",
          "type": "address"
        },
        {
          "internalType": "address",
          "name": "_lpTokenAddress",
          "type": "address"
        }
      ],
      "stateMutability": "nonpayable",
      "type": "constructor"
    },
    {
      "anonymous": false,
      "inputs": [
        {
          "indexed": true,
          "internalType": "address",
          "name": "user",
          "type": "address"
        },
        {
          "indexed": false,
          "internalType": "uint256",
          "name": "amount",
          "type": "uint256"
        }
      ],
      "name": "Deposited",
      "type": "event"
    },
    {
      "anonymous": false,
      "inputs": [
        {
          "indexed": true,
          "internalType": "address",
          "name": "previousOwner",
          "type": "address"
        },
        {
          "indexed": true,
          "internalType": "address",
          "name": "newOwner",
          "type": "address"
        }
      ],
      "name": "OwnershipTransferred",
      "type": "event"
    },
    {
      "anonymous": false,
      "inputs": [
        {
          "indexed": true,
          "internalType": "address",
          "name": "user",
          "type": "address"
        },
        {
          "indexed": false,
          "internalType": "uint256",
          "name": "amount",
          "type": "uint256"
        }
      ],
      "name": "Staked",
      "type": "event"
    },
    {
      "anonymous": false,
      "inputs": [
        {
          "indexed": true,
          "internalType": "address",
          "name": "user",
          "type": "address"
        },
        {
          "indexed": false,
          "internalType": "uint256",
          "name": "amount",
          "type": "uint256"
        }
      ],
      "name": "UnStaked",
      "type": "event"
    },
    {
      "anonymous": false,
      "inputs": [
        {
          "indexed": true,
          "internalType": "address",
          "name": "user",
          "type": "address"
        },
        {
          "indexed": false,
          "internalType": "uint256",
          "name": "amount",
          "type": "uint256"
        }
      ],
      "name": "Withdrawn",
      "type": "event"
    },
    {
      "inputs": [
        {
          "internalType": "address",
          "name": "",
          "type": "address"
        }
      ],
      "name": "balances",
      "outputs": [
        {
          "internalType": "uint256",
          "name": "",
          "type": "uint256"
        }
      ],
      "stateMutability": "view",
      "type": "function",
      "constant": true
    },
    {
      "inputs": [
        {
          "internalType": "uint256",
          "name": "amount",
          "type": "uint256"
        }
      ],
      "name": "deposit",
      "outputs": [],
      "stateMutability": "nonpayable",
      "type": "function"
    },
    {
      "inputs": [],
      "name": "getBalance",
      "outputs": [
        {
          "internalType": "uint256",
          "name": "",
          "type": "uint256"
        }
      ],
      "stateMutability": "view",
      "type": "function",
      "constant": true
    },
    {
      "inputs": [],
      "name": "owner",
      "outputs": [
        {
          "internalType": "address",
          "name": "",
          "type": "address"
        }
      ],
      "stateMutability": "view",
      "type": "function",
      "constant": true
    },
    {
      "inputs": [],
      "name": "renounceOwnership",
      "outputs": [],
      "stateMutability": "nonpayable",
      "type": "function"
    },
    {
      "inputs": [
        {
          "internalType": "uint256",
          "name": "",
          "type": "uint256"
        }
      ],
      "name": "stakers",
      "outputs": [
        {
          "internalType": "address",
          "name": "",
          "type": "address"
        }
      ],
      "stateMutability": "view",
      "type": "function",
      "constant": true
    },
    {
      "inputs": [
        {
          "internalType": "address",
          "name": "",
          "type": "address"
        }
      ],
      "name": "stakes",
      "outputs": [
        {
          "internalType": "uint256",
          "name": "",
          "type": "uint256"
        }
      ],
      "stateMutability": "view",
      "type": "function",
      "constant": true
    },
    {
      "inputs": [],
      "name": "totalStakes",
      "outputs": [
        {
          "internalType": "uint256",
          "name": "",
          "type": "uint256"
        }
      ],
      "stateMutability": "view",
      "type": "function",
      "constant": true
    },
    {
      "inputs": [
        {
          "internalType": "address",
          "name": "newOwner",
          "type": "address"
        }
      ],
      "name": "transferOwnership",
      "outputs": [],
      "stateMutability": "nonpayable",
      "type": "function"
    },
    {
      "inputs": [
        {
          "internalType": "uint256",
          "name": "amount",
          "type": "uint256"
        }
      ],
      "name": "withdraw",
      "outputs": [],
      "stateMutability": "nonpayable",
      "type": "function"
    },
    {
      "inputs": [
        {
          "internalType": "uint256",
          "name": "amount",
          "type": "uint256"
        }
      ],
      "name": "depositAndStartStake",
      "outputs": [],
      "stateMutability": "nonpayable",
      "type": "function"
    },
    {
      "inputs": [
        {
          "internalType": "uint256",
          "name": "amount",
          "type": "uint256"
        }
      ],
      "name": "endStakeAndWithdraw",
      "outputs": [],
      "stateMutability": "nonpayable",
      "type": "function"
    },
    {
      "inputs": [
        {
          "internalType": "uint256",
          "name": "amount",
          "type": "uint256"
        }
      ],
      "name": "startStake",
      "outputs": [],
      "stateMutability": "nonpayable",
      "type": "function"
    },
    {
      "inputs": [
        {
          "internalType": "uint256",
          "name": "amount",
          "type": "uint256"
        }
      ],
      "name": "endStake",
      "outputs": [],
      "stateMutability": "nonpayable",
      "type": "function"
    },
    {
      "inputs": [],
      "name": "getStakedBalance",
      "outputs": [
        {
          "internalType": "uint256",
          "name": "",
          "type": "uint256"
        }
      ],
      "stateMutability": "view",
      "type": "function",
      "constant": true
    },
    {
      "inputs": [],
      "name": "reset",
      "outputs": [],
      "stateMutability": "nonpayable",
      "type": "function"
    }
  ],
  "bytecode": "0x608060405234801561000f575f80fd5b50604051611a46380380611a46833981810160405281019061003191906101bc565b8061004e61004361009660201b60201c565b61009d60201b60201c565b8060015f6101000a81548173ffffffffffffffffffffffffffffffffffffffff021916908373ffffffffffffffffffffffffffffffffffffffff1602179055505050506101fa565b5f33905090565b5f805f9054906101000a900473ffffffffffffffffffffffffffffffffffffffff169050815f806101000a81548173ffffffffffffffffffffffffffffffffffffffff021916908373ffffffffffffffffffffffffffffffffffffffff1602179055508173ffffffffffffffffffffffffffffffffffffffff168173ffffffffffffffffffffffffffffffffffffffff167f8be0079c531659141344cd1fd0a4f28419497f9722a3daafe3b4186f6b6457e060405160405180910390a35050565b5f80fd5b5f73ffffffffffffffffffffffffffffffffffffffff82169050919050565b5f61018b82610162565b9050919050565b61019b81610181565b81146101a5575f80fd5b50565b5f815190506101b681610192565b92915050565b5f80604083850312156101d2576101d161015e565b5b5f6101df858286016101a8565b92505060206101f0858286016101a8565b9150509250929050565b61183f806102075f395ff3fe608060405234801561000f575f80fd5b50600436106100fe575f3560e01c8063aaf6364011610095578063d826f88f11610064578063d826f88f14610270578063d9c5fbed1461027a578063f2fde38b14610296578063fd5e6dd1146102b2576100fe565b8063aaf63640146101fe578063b51bd40f1461021a578063b6b55f2514610236578063bf9befb114610252576100fe565b80632e1a7d4d116100d15780632e1a7d4d1461019c578063715018a6146101b857806376965867146101c25780638da5cb5b146101e0576100fe565b80630cbe28d61461010257806312065fe01461011e57806316934fc41461013c57806327e235e31461016c575b5f80fd5b61011c6004803603810190610117919061118b565b6102e2565b005b6101266104f0565b60405161013391906111c5565b60405180910390f35b61015660048036038101906101519190611238565b610534565b60405161016391906111c5565b60405180910390f35b61018660048036038101906101819190611238565b610549565b60405161019391906111c5565b60405180910390f35b6101b660048036038101906101b1919061118b565b61055e565b005b6101c061075d565b005b6101ca610770565b6040516101d791906111c5565b60405180910390f35b6101e86107b4565b6040516101f59190611272565b60405180910390f35b6102186004803603810190610213919061118b565b6107db565b005b610234600480360381019061022f919061118b565b6107f0565b005b610250600480360381019061024b919061118b565b610a40565b005b61025a610de4565b60405161026791906111c5565b60405180910390f35b610278610dea565b005b610294600480360381019061028f919061118b565b610f12565b005b6102b060048036038101906102ab9190611238565b610f27565b005b6102cc60048036038101906102c7919061118b565b610fa9565b6040516102d99190611272565b60405180910390f35b8060065f3373ffffffffffffffffffffffffffffffffffffffff1673ffffffffffffffffffffffffffffffffffffffff1681526020019081526020015f20541015610362576040517f08c379a0000000000000000000000000000000000000000000000000000000008152600401610359906112e5565b60405180910390fd5b6103b28160025f3373ffffffffffffffffffffffffffffffffffffffff1673ffffffffffffffffffffffffffffffffffffffff1681526020019081526020015f2054610fe490919063ffffffff16565b60025f3373ffffffffffffffffffffffffffffffffffffffff1673ffffffffffffffffffffffffffffffffffffffff1681526020019081526020015f20819055506104438160065f3373ffffffffffffffffffffffffffffffffffffffff1673ffffffffffffffffffffffffffffffffffffffff1681526020019081526020015f2054610ff990919063ffffffff16565b60065f3373ffffffffffffffffffffffffffffffffffffffff1673ffffffffffffffffffffffffffffffffffffffff1681526020019081526020015f208190555061049981600754610ff990919063ffffffff16565b6007819055503373ffffffffffffffffffffffffffffffffffffffff167f79d3df6837cc49ff0e09fd3258e6e45594e0703445bb06825e9d75156eaee8f0826040516104e591906111c5565b60405180910390a250565b5f60025f3373ffffffffffffffffffffffffffffffffffffffff1673ffffffffffffffffffffffffffffffffffffffff1681526020019081526020015f2054905090565b6006602052805f5260405f205f915090505481565b6002602052805f5260405f205f915090505481565b8060025f3373ffffffffffffffffffffffffffffffffffffffff1673ffffffffffffffffffffffffffffffffffffffff1681526020019081526020015f205410156105de576040517f08c379a00000000000000000000000000000000000000000000000000000000081526004016105d59061134d565b60405180910390fd5b61062e8160025f3373ffffffffffffffffffffffffffffffffffffffff1673ffffffffffffffffffffffffffffffffffffffff1681526020019081526020015f2054610ff990919063ffffffff16565b60025f3373ffffffffffffffffffffffffffffffffffffffff1673ffffffffffffffffffffffffffffffffffffffff1681526020019081526020015f208190555060015f9054906101000a900473ffffffffffffffffffffffffffffffffffffffff1673ffffffffffffffffffffffffffffffffffffffff1663a9059cbb33836040518363ffffffff1660e01b81526004016106cb92919061136b565b6020604051808303815f875af11580156106e7573d5f803e3d5ffd5b505050506040513d601f19601f8201168201806040525081019061070b91906113c7565b503373ffffffffffffffffffffffffffffffffffffffff167f7084f5476618d8e60b11ef0d7d3f06914655adb8793e28ff7f018d4c76d505d58260405161075291906111c5565b60405180910390a250565b61076561100e565b61076e5f61108c565b565b5f60065f3373ffffffffffffffffffffffffffffffffffffffff1673ffffffffffffffffffffffffffffffffffffffff1681526020019081526020015f2054905090565b5f805f9054906101000a900473ffffffffffffffffffffffffffffffffffffffff16905090565b6107e4816102e2565b6107ed8161055e565b50565b5f8111610832576040517f08c379a000000000000000000000000000000000000000000000000000000000815260040161082990611462565b60405180910390fd5b8060025f3373ffffffffffffffffffffffffffffffffffffffff1673ffffffffffffffffffffffffffffffffffffffff1681526020019081526020015f205410156108b2576040517f08c379a00000000000000000000000000000000000000000000000000000000081526004016108a9906114ca565b60405180910390fd5b6109028160025f3373ffffffffffffffffffffffffffffffffffffffff1673ffffffffffffffffffffffffffffffffffffffff1681526020019081526020015f2054610ff990919063ffffffff16565b60025f3373ffffffffffffffffffffffffffffffffffffffff1673ffffffffffffffffffffffffffffffffffffffff1681526020019081526020015f20819055506109938160065f3373ffffffffffffffffffffffffffffffffffffffff1673ffffffffffffffffffffffffffffffffffffffff1681526020019081526020015f2054610fe490919063ffffffff16565b60065f3373ffffffffffffffffffffffffffffffffffffffff1673ffffffffffffffffffffffffffffffffffffffff1681526020019081526020015f20819055506109e981600754610fe490919063ffffffff16565b6007819055503373ffffffffffffffffffffffffffffffffffffffff167f9e71bc8eea02a63969f509818f2dafb9254532904319f9dbda79b67bd34a5f3d82604051610a3591906111c5565b60405180910390a250565b5f8111610a82576040517f08c379a0000000000000000000000000000000000000000000000000000000008152600401610a7990611532565b60405180910390fd5b8060015f9054906101000a900473ffffffffffffffffffffffffffffffffffffffff1673ffffffffffffffffffffffffffffffffffffffff1663dd62ed3e33306040518363ffffffff1660e01b8152600401610adf929190611550565b602060405180830381865afa158015610afa573d5f803e3d5ffd5b505050506040513d601f19601f82011682018060405250810190610b1e919061158b565b1015610b5f576040517f08c379a0000000000000000000000000000000000000000000000000000000008152600401610b5690611600565b60405180910390fd5b610baf8160025f3373ffffffffffffffffffffffffffffffffffffffff1673ffffffffffffffffffffffffffffffffffffffff1681526020019081526020015f2054610fe490919063ffffffff16565b60025f3373ffffffffffffffffffffffffffffffffffffffff1673ffffffffffffffffffffffffffffffffffffffff1681526020019081526020015f208190555060045f3373ffffffffffffffffffffffffffffffffffffffff1673ffffffffffffffffffffffffffffffffffffffff1681526020019081526020015f205f9054906101000a900460ff16610cf457600160045f3373ffffffffffffffffffffffffffffffffffffffff1673ffffffffffffffffffffffffffffffffffffffff1681526020019081526020015f205f6101000a81548160ff021916908315150217905550600333908060018154018082558091505060019003905f5260205f20015f9091909190916101000a81548173ffffffffffffffffffffffffffffffffffffffff021916908373ffffffffffffffffffffffffffffffffffffffff1602179055505b60015f9054906101000a900473ffffffffffffffffffffffffffffffffffffffff1673ffffffffffffffffffffffffffffffffffffffff166323b872dd3330846040518463ffffffff1660e01b8152600401610d529392919061161e565b6020604051808303815f875af1158015610d6e573d5f803e3d5ffd5b505050506040513d601f19601f82011682018060405250810190610d9291906113c7565b503373ffffffffffffffffffffffffffffffffffffffff167f2da466a7b24304f47e87fa2e1e5a81b9831ce54fec19055ce277ca2f39ba42c482604051610dd991906111c5565b60405180910390a250565b60075481565b610df261100e565b5f5b600380549050811015610f08575f60025f60038481548110610e1957610e18611653565b5b905f5260205f20015f9054906101000a900473ffffffffffffffffffffffffffffffffffffffff1673ffffffffffffffffffffffffffffffffffffffff1673ffffffffffffffffffffffffffffffffffffffff1681526020019081526020015f20819055505f60065f60038481548110610e9657610e95611653565b5b905f5260205f20015f9054906101000a900473ffffffffffffffffffffffffffffffffffffffff1673ffffffffffffffffffffffffffffffffffffffff1673ffffffffffffffffffffffffffffffffffffffff1681526020019081526020015f20819055508080600101915050610df4565b505f600781905550565b610f1b81610a40565b610f24816107f0565b50565b610f2f61100e565b5f73ffffffffffffffffffffffffffffffffffffffff168173ffffffffffffffffffffffffffffffffffffffff1603610f9d576040517f08c379a0000000000000000000000000000000000000000000000000000000008152600401610f94906116f0565b60405180910390fd5b610fa68161108c565b50565b60058181548110610fb8575f80fd5b905f5260205f20015f915054906101000a900473ffffffffffffffffffffffffffffffffffffffff1681565b5f8183610ff1919061173b565b905092915050565b5f8183611006919061176e565b905092915050565b61101661114d565b73ffffffffffffffffffffffffffffffffffffffff166110346107b4565b73ffffffffffffffffffffffffffffffffffffffff161461108a576040517f08c379a0000000000000000000000000000000000000000000000000000000008152600401611081906117eb565b60405180910390fd5b565b5f805f9054906101000a900473ffffffffffffffffffffffffffffffffffffffff169050815f806101000a81548173ffffffffffffffffffffffffffffffffffffffff021916908373ffffffffffffffffffffffffffffffffffffffff1602179055508173ffffffffffffffffffffffffffffffffffffffff168173ffffffffffffffffffffffffffffffffffffffff167f8be0079c531659141344cd1fd0a4f28419497f9722a3daafe3b4186f6b6457e060405160405180910390a35050565b5f33905090565b5f80fd5b5f819050919050565b61116a81611158565b8114611174575f80fd5b50565b5f8135905061118581611161565b92915050565b5f602082840312156111a05761119f611154565b5b5f6111ad84828501611177565b91505092915050565b6111bf81611158565b82525050565b5f6020820190506111d85f8301846111b6565b92915050565b5f73ffffffffffffffffffffffffffffffffffffffff82169050919050565b5f611207826111de565b9050919050565b611217816111fd565b8114611221575f80fd5b50565b5f813590506112328161120e565b92915050565b5f6020828403121561124d5761124c611154565b5b5f61125a84828501611224565b91505092915050565b61126c816111fd565b82525050565b5f6020820190506112855f830184611263565b92915050565b5f82825260208201905092915050565b7f4e6f7420656e6f75676820746f6b656e73207374616b656400000000000000005f82015250565b5f6112cf60188361128b565b91506112da8261129b565b602082019050919050565b5f6020820190508181035f8301526112fc816112c3565b9050919050565b7f496e73756666696369656e7420746f6b656e2062616c616e63650000000000005f82015250565b5f611337601a8361128b565b915061134282611303565b602082019050919050565b5f6020820190508181035f8301526113648161132b565b9050919050565b5f60408201905061137e5f830185611263565b61138b60208301846111b6565b9392505050565b5f8115159050919050565b6113a681611392565b81146113b0575f80fd5b50565b5f815190506113c18161139d565b92915050565b5f602082840312156113dc576113db611154565b5b5f6113e9848285016113b3565b91505092915050565b7f5374616b65206d757374206265206120706f73697469766520616d6f756e74205f8201527f67726561746572207468616e2030000000000000000000000000000000000000602082015250565b5f61144c602e8361128b565b9150611457826113f2565b604082019050919050565b5f6020820190508181035f83015261147981611440565b9050919050565b7f4e6f7420656e6f75676820746f6b656e7320746f207374616b650000000000005f82015250565b5f6114b4601a8361128b565b91506114bf82611480565b602082019050919050565b5f6020820190508181035f8301526114e1816114a8565b9050919050565b7f4465706f73697420616d6f756e742073686f756c64206e6f74206265203000005f82015250565b5f61151c601e8361128b565b9150611527826114e8565b602082019050919050565b5f6020820190508181035f83015261154981611510565b9050919050565b5f6040820190506115635f830185611263565b6115706020830184611263565b9392505050565b5f8151905061158581611161565b92915050565b5f602082840312156115a05761159f611154565b5b5f6115ad84828501611577565b91505092915050565b7f496e73756666696369656e7420616c6c6f77616e6365000000000000000000005f82015250565b5f6115ea60168361128b565b91506115f5826115b6565b602082019050919050565b5f6020820190508181035f830152611617816115de565b9050919050565b5f6060820190506116315f830186611263565b61163e6020830185611263565b61164b60408301846111b6565b949350505050565b7f4e487b71000000000000000000000000000000000000000000000000000000005f52603260045260245ffd5b7f4f776e61626c653a206e6577206f776e657220697320746865207a65726f20615f8201527f6464726573730000000000000000000000000000000000000000000000000000602082015250565b5f6116da60268361128b565b91506116e582611680565b604082019050919050565b5f6020820190508181035f830152611707816116ce565b9050919050565b7f4e487b71000000000000000000000000000000000000000000000000000000005f52601160045260245ffd5b5f61174582611158565b915061175083611158565b92508282019050808211156117685761176761170e565b5b92915050565b5f61177882611158565b915061178383611158565b925082820390508181111561179b5761179a61170e565b5b92915050565b7f4f776e61626c653a2063616c6c6572206973206e6f7420746865206f776e65725f82015250565b5f6117d560208361128b565b91506117e0826117a1565b602082019050919050565b5f6020820190508181035f830152611802816117c9565b905091905056fea2646970667358221220c4f2eba30e1ecf802a9e1d56ca096259cbbfdd8cbd6b32a38c1384b1a1b2dd1664736f6c634300081a0033",
  "immutableReferences": {},
  "source": "// SPDX-License-Identifier: MIT\npragma solidity ^0.8.0;\npragma abicoder v2;\n\nimport \"./Wallet.sol\";\nimport \"../node_modules/@openzeppelin/contracts/utils/math/Math.sol\";\n\n\ncontract StakingPool is Wallet  {\n\n    using SafeMath for uint256;\n\n    event Staked(address indexed user, uint amount);\n    event UnStaked(address indexed user, uint256 amount);\n\n    address[] public stakers; // addresses that have active stakes\n    mapping (address => uint) public stakes;\n    uint public totalStakes;\n \n    constructor(address _rewardTokenAddress, address _lpTokenAddress) Wallet(_lpTokenAddress) {}\n\n\n    function depositAndStartStake(uint256 amount) public {\n        deposit(amount);\n        startStake(amount);\n    }\n\n\n    function endStakeAndWithdraw(uint amount) public {\n        endStake(amount);\n        withdraw(amount);\n    }\n\n\n    function startStake(uint amount) virtual public {\n        require(amount > 0, \"Stake must be a positive amount greater than 0\");\n        require(balances[msg.sender] >= amount, \"Not enough tokens to stake\");\n\n        // move tokens from lp token balance to the staked balance\n        balances[msg.sender] = balances[msg.sender].sub(amount);\n        stakes[msg.sender] = stakes[msg.sender].add(amount); \n       \n        totalStakes = totalStakes.add(amount);\n\n        emit Staked(msg.sender, amount);\n    }\n\n\n    function endStake(uint amount) virtual public {\n        require(stakes[msg.sender] >= amount, \"Not enough tokens staked\");\n\n        // return lp tokens to lp token balance\n        balances[msg.sender] = balances[msg.sender].add(amount);\n        stakes[msg.sender] = stakes[msg.sender].sub(amount); \n\n        totalStakes = totalStakes.sub(amount);\n\n        emit UnStaked(msg.sender, amount);\n    }\n\n\n    function getStakedBalance() public view returns (uint) {\n        return stakes[msg.sender];\n    }\n\n\n    function reset() public virtual onlyOwner {\n        // reset user balances and stakes\n        for (uint i=0; i < usersArray.length; i++) {\n            balances[usersArray[i]] = 0;\n            stakes[usersArray[i]] = 0;\n        }\n        totalStakes = 0;\n    }\n}",
  "sourcePath": "/Users/user/Documents/stakedu/contracts/StakingPool.sol",
  "compiler": {
    "name": "solc",
    "version": "0.8.26+commit.8a97fa7a.Emscripten.clang"
  },
  "schemaVersion": "3.4.16",
  "updatedAt": "2024-08-14T12:28:02.088Z",
  "networkType": "ethereum",
  "devdoc": {
    "kind": "dev",
    "methods": {
      "owner()": {
        "details": "Returns the address of the current owner."
      },
      "renounceOwnership()": {
        "details": "Leaves the contract without owner. It will not be possible to call `onlyOwner` functions. Can only be called by the current owner. NOTE: Renouncing ownership will leave the contract without an owner, thereby disabling any functionality that is only available to the owner."
      },
      "transferOwnership(address)": {
        "details": "Transfers ownership of the contract to a new account (`newOwner`). Can only be called by the current owner."
      }
    },
    "version": 1
  },
  "userdoc": {
    "kind": "user",
    "methods": {},
    "version": 1
  }
}